:020000040800F2
:10000000280600205D510008954F0008974F000812
:10001000994F00089B4F00089D4F0008000000000A
:100020000000000000000000000000009F4F0008DA
:10003000A14F000800000000A34F0008A54F0008D2
:10004000795100087D510008815100088551000850
:10005000895100088D5100081F5000089151000877
:1000600095510008995100089D510008A1510008C0
:10007000A5510008A9510008AD510008B151000870
:10008000B5510008B951000819500008BD510008C9
:10009000C1510008C5510008C9510008CD510008E0
:1000A000D1510008D5510008D9510008DD51000890
:1000B000E1510008E551000800000000E951000886
:1000C000ED5100080000000000000000F1510008A0
:1000D00000000000F5510008F9510008FD5100082A
:1000E0000152000805520008000000000000000056
:1000F0000000000000000000000000000000000000
:1001000000000000000000000000000000000000EF
:100110000000000000000000095200080D52000815
:1001200000000000000000000000000000000000CF
:1001300000000000000000000000000000000000BF
:100140001152000815520008000000002950000854
:1001500025500008195200081D52000821520008BD
:10016000255200082952000800000000000000008D
:10017000000000000000000000000000000000007F
:10018000000000002D5200082DE9F8432DED088BEA
:1001900094B000260FA8142101F0AEF94FF4C879ED
:1001A0009FED748BC84600F043FA01F0BFF90120BF
:1001B00005900690079602200C904FF480300D9029
:1001C0004FF4E0100E9005A801F0ECF908B101F031
:1001D00049F90F20009002960220019004964FF4F6
:1001E00080600390022100A801F02EFB08B101F00D
:1001F00039F901F01AFCDFF8B81CB0FBF1F001F09E
:1002000097FCDFF8B04C0020207101F0B1FC012018
:1002100001F0AEFC022001F0ABFC032001F0A8FCD1
:100220000121304601F0E0FC304601F01AFD0128C2
:100230001AD10DE000F054FE462001F0A2F900F0C2
:1002400052FE00F099FE462001F09BF900F097FE67
:1002500001F061F80128EDD000F045FE00F08FFEBE
:100260000120A07100F019FC00F0E7F900F088FB14
:100270009FEDD69B9FEDC5BADFEDC5BADFF8387CA0
:100280000FAD0CE000F07EFE00F079FEB0EE6B0AE0
:1002900000F0F8FB502001F074F986F00106607957
:1002A00038B1022800F09C8068D3032800F03E811A
:1002B00068E100F08FF900F028FE00F066FE00F023
:1002C0005EFE00F010FE00F0ABF918B301F0CAF8C2
:1002D00020E000F005FE00F018FE00F09BF900EEB3
:1002E000100A00F0CFFB53EC1A2B0020DFF8CC1BD8
:1002F00001F0E0FC00F079F951EC1A0B0022DFF874
:10030000C03B01F04BFD05D800F092F900F0EBFD89
:1003100000F0E3FD00F0FFFF012804BFE0780128B2
:10032000D7D000F0F8FF012804BFE0780028B6D14C
:1003300000F0D9FD00F0E6FD00F06CF900EE100AC7
:1003400000F0A0FB53EC1A2B0020DFF8781B01F023
:10035000B1FC00F04AF951EC1A0B0022002301F025
:1003600035FDDED89FEDA9AB00F0CFFD00F0B5FD67
:10037000D7E700BF000000000088834000F02AF9A2
:1003800000F054F9B0EE6B0A00F07CFB0020207105
:1003900001F016FC00F026F900F0B7FD00F0ECFDCE
:1003A00000F020F900F0EBFD00F09AFD00F01AF9E2
:1003B00000F099FD00F0E6FD00F014F900F0E5FD15
:1003C000012020704021384602F0ECF808B101F01D
:1003D00049F84FEA5808B8F1010F00D1C8465EE766
:1003E00000F024F900F091FD00F0CFFD00F0C7FD12
:1003F00000F079FD00F014F908B101F033F80020A5
:10040000207101F0DDFB00F06EFD50200F902820E0
:1004100068600020A860A020E860782028610020A3
:10042000A065E06520666066A066C4ED1BBA38680A
:10043000D0F8901341F40031C0F89013C4ED1BBA0A
:100440002CE094ED1B0ADFEDC90A00F0A3F805DBF0
:1004500055F82010491C00F0A2F8F9D300F0ACF8D0
:1004600053EC192B02F02CFE02F0FCFE02F042FFCE
:1004700041EC100B02F09EFF51EC100B02F0F2FE6B
:1004800000F0B8F8E06E02F035FFDFF8D82CDFF8A6
:10049000D83C01F00FFC02F0E5FEE06694ED1B0A8B
:1004A000B4EE4B0AF1EE10FA02DB20790028C8D036
:1004B00000F016FD00F029FD84ED1BBA94ED1B0A37
:1004C000DFEDAB0A00F066F85ED5207900285BD13D
:1004D00094ED1B0ADFEDA70A00F05CF805DB55F888
:1004E0002010491E00F05BF8F9D300F065F853ECDA
:1004F000192B02F0E5FD02F0B5FE02F0FBFE41EC27
:10050000100B02F057FF51EC100B02F0ABFE00F0A5
:1005100071F8E06E02F0EEFEDFF8482CDFF8383DAF
:1005200001F0C8FB02F09EFEE066C7E7B0EE48AA05
:1005300000F050F80120E070F0EE68AA00F0E5FC51
:1005400000F0D1FC26B100F01DFD00F018FD03E025
:1005500000F01BFD00F010FD00F062F808B100F0A3
:1005600081FF002020719FED840A00F08BFA142097
:1005700001F007F8002E3FF485AE00F006FD00F014
:10058000FBFC83E600F06EFF89E600000080D143AB
:1005900000401C44B4EE600AF1EE10FA704745F8D2
:1005A000201040F6E4420903B1FBF2F104EB8002B3
:1005B000401C91650528704794ED1B0ADFED6F0A1A
:1005C00080EE200A10EE100A02F094BE9A999999D2
:1005D0009999F13F3868D0F8901321F40031C0F8B0
:1005E00090137047404600F0CCBF41EC1A0B0A2034
:1005F00000F0C7BF00EE100ADFED600A80EE200AAF
:10060000BCEEC00A10EE100A00F0BBBF00000000F4
:10061000000000000020207151EC1A0B02F022BEF5
:10062000002020704021384601F0CFBF0120E0704B
:10063000B0EE48AAF0EE68AA704770B588B0002006
:1006400040F6E443DFF86C4804EB8001401C8A6DFF
:100650001203B2FBF3F28A650528F5DBDFF83C6D87
:10066000DFF83C5D306840F0010030601020286306
:10067000002068638020A8634FF40070E8634FF4A3
:1006800000602864202068644FF40050A864DFF8FC
:10069000140DE86205F12C0002F094FE08B100F0A0
:1006A000E1FEB06840F00050B060DFF8FC0C686616
:1006B00005F1640002F0EDFE08B100F0D3FE05F193
:1006C000640002F0D4FE08B100F0CCFE00200190DE
:1006D0000090002200A905F1640002F0EBFE08B1D1
:1006E00000F0C0FE002105F1640002F019FF08B11E
:1006F00000F0B8FEA36D0022002105F1640002F0B5
:10070000FDFE08B100F0AEFE306840F4802030609D
:1007100002A901200290032003900020049000F021
:1007200022F9DFF8100D2860284602F076FF08B1A4
:1007300000F098FE402068600020A860E860286112
:100740006861E861A86128626862284602F01AFFC1
:1007500008B100F087FE284602F074FF08B100F0EF
:1007600081FE00F00DF808B070BD00006746174428
:1007700001401C4401401744000000000000C84232
:1007800070B5B6B04FF48050309030A9022031904F
:1007900003203390002032900D20349000F0E3F8D5
:1007A000DFF8940CDFF810478169DFF8906C41F4B2
:1007B00080518161016841F000510160266020464E
:1007C00001F01CFBDFF8D85B266005F12C00C4F8B3
:1007D000D0002C65204601F011FB0C21204601F0D1
:1007E00061FB08B100F03EFE00F06EFB08B100F0C6
:1007F00039FE00F027F910224FF480001E900221EC
:1008000004201F90002000F0A7F808B100F02AFE95
:100810000020079007AA4FF4F81008900221DFF893
:10082000200C0990686E08300A9005200B9000207B
:1008300000F01AF94FF40010199000F009F908B10E
:1008400000F010FE00F093F840F666600090012280
:1008500000F092F808B100F005FE00F088F841F6CB
:10086000CD400090022200F087F808B100F0FAFDB8
:1008700000F07DF842F633300090042200F07CF85E
:1008800008B100F0EFFD00F072F843F69A10009006
:10089000082200F071F808B100F0E4FD4FF4904038
:1008A00000F0DCF8022100F052F808B100F0DAFDA7
:1008B0000120249024AA00202590269002212020A7
:1008C000289000202790204601F0AEFC08B100F0EF
:1008D000C9FD0220299029A90C202A9000202B90E4
:1008E0004FF480602C9000202D9040F271202E90CB
:1008F0002F90204601F065FC08B100F0B3FD1021F7
:1009000000F09DF808B100F0ADFD0121204601F096
:10091000EDFE08B100F0A6FD4FF40021204601F0E5
:1009200078FE08B100F09EFD00220021432001F076
:10093000D4F8432001F0F2F84FF400306060204614
:1009400001F0EDFE08B100F08DFD36B070BD08205D
:100950000690204601F0E1BA209021902290239049
:10096000204601F001BEDFF8DC0A02F085BE00205F
:100970000190029000AB70470221204601F060BD5B
:1009800010B5DFF8180AAAB0016841F480210160AF
:100990004FF48040249024A9022025900320279022
:1009A000002026900D202890FFF7DDFFDFF8084596
:1009B00000F048F8402208201E90032100201F90DC
:1009C000FFF7CAFF08B100F04DFD00200790089026
:1009D00009900A900B9000F047F807AA4FF48000A6
:1009E0001990032100F034F808B100F03BFD4FF4FA
:1009F000106000F033F80321FFF7A9FF08B100F001
:100A000031FDFFF7B4FFDFF8400A008800900122B3
:100A10000321204601F014FD08B100F023FD402120
:100A200000F00DF808B100F01DFD4FF480112046D4
:100A300001F0DEFD08B100F015FD2AB010BD204622
:100A400001F0B0BD00201C901CAB04201D9070472D
:100A500000201A901B90204601F042BC039003AA8C
:100A600000200490059070470C900D900E900F9010
:100A7000109011901290139014901590169017905A
:100A800018907047DFF830140968BDEEC00A10EE08
:100A9000100A80B2C1F8A80370472DE9F04FDFF8C3
:100AA000AC09B3B0006880B2039040F6C415DFF81B
:100AB000EC08C16941F48051C1612E46416841F0A2
:100AC00000514160416841F001014160016841F419
:100AD00000310160016841F480210160016841F446
:100AE000002101604FF470602E902EA902202F90FB
:100AF00003203190002030900D2032904FF0904034
:100B000002F0BAFD0121002001F06EF8DFF8A843E1
:100B1000DFF8280920600C21204601F0C3F908B154
:100B200000F0A0FC00F0D0F908B100F09BFC002020
:100B3000269026AB0420279001220820289000212F
:100B4000002029902A902B902C902D90FFF708FFE1
:100B500008B100F087FC26AB00F080FB08B100F084
:100B600081FC002011901290139014901590169013
:100B700017901890199011AA4FF000601A90002158
:100B800000201B901C904FF000501D9000201E90E4
:100B90001F9020904FF4807021900020229023908D
:100BA00024902590204601F09BFB08B100F05AFCF0
:100BB00011AA0121204601F093FB08B100F052FC7C
:100BC00000F094F940F213100990002100F094F91C
:100BD00040F233400590204601F000FC08B100F0DF
:100BE00041FC00F083F94B200990012100F084F9C9
:100BF00040F2C9400590204601F0F0FB08B100F03A
:100C000031FC4FF490400D900DAA0A200E90002167
:100C100000200F9008201090FFF79BFE08B100F015
:100C200021FC002001900295009500AB012200F00C
:100C300050F908B100F016FC0020019000AB40F61E
:100C4000B83002900090022200F043F908B100F0A1
:100C500009FC0020019000AB41F27C500290009012
:100C6000082200F036F908B100F0FCFB0DAA0121C2
:100C7000FFF76FFE08B100F0F5FB0020019000AB1C
:100C80004FF47A700290009002220121204601F078
:100C9000D7FB08B100F0E6FB00220021442000F061
:100CA0001CFF442000F03AFF0121FFF7C8FE08B105
:100CB00000F0D8FB0221FFF7C2FE08B100F0D2FB22
:100CC0000421FFF7BCFE08B100F0CCFB0821FFF7C0
:100CD000B6FE08B100F0C6FB00F065FA0021204620
:100CE00001F056F908B100F0BDFB00F051F900F039
:100CF000F4F800276F4D00F0D5F825D900F0CEF8B4
:100D000008B100F0AFFB286F039948436989B0FB35
:100D1000F1F0286740F6E441286F484340F6FF7140
:100D2000B0FBF1F040F2F111484364217F1CB0FBAD
:100D3000F1F8642FDFD300F025F900F0CEF800F0D1
:100D400024F900F0CAF8F6E700F016F90220A870BE
:100D50000120687000F0C1F800F0A0F808B100F0C0
:100D600081FBDFF8EC06484444F20C6A42F2117B46
:100D70000B2832D300F0CCF8D94504D20A365645B8
:100D800007D3564605E00A3EB6F5FA7F98BF4FF402
:100D9000FA7600F0E6F808B100F064FB00F0F6F92E
:100DA00000F07CF808B100F05DFB5F4502D200F076
:100DB00079F8D6D900F0E3F800F0A4F800F08DF847
:100DC00000F0A3F800F089F8F6E700F089F800F0E9
:100DD00084F800F088F800F080F828890028F4D022
:100DE000002028810120A8706870FFF700FC002710
:100DF00000F076F800F0C3F8A9F2CB700B2833D3DB
:100E000000F086F8B9F5FA6F04D80A36564507D3CC
:100E1000564605E00A3EB6F5FA7F98BF4FF4FA76DB
:100E200000F09FF808B100F01DFB00F0AFF900F0F2
:100E300035F808B100F016FB5F4502D200F032F839
:100E4000DAD900F050F800F05DF800F046F800F054
:100E50005CF800F042F8F6E700F08EF800F03DF89C
:100E600000F08DF800F039F828890028F4D000F05F
:100E700049F800F087F800F07FF800F031F896208C
:100E800000F07FFB00F041F800F07FF800F077F809
:100E900000F029F8962000F074FBE8E705F10C005B
:100EA00002F024BFDFF8AC054044B0F57A7F70470C
:100EB000A086010000000020C00000200000F03FDC
:100EC000008883400000F0BF4FF0FF31204601F062
:100ED0000AB80021204601F0B3BA642000F051BBEB
:100EE000032000F06DBE032000F074BE00200B90C4
:100EF0000A900C9004AA7047002004900790069076
:100F000008907047002000F05BBE002000F062BE39
:100F10006889296F039A5143B1FBF0F12967696F22
:100F2000039A5143B1FBF0F0686740F6E442296F41
:100F3000686F514340F6FF72B1FBF2F140F2F112DB
:100F400051436422B1FBF2F840F6E441484340F6D5
:100F5000FF71B0FBF1F040F2F7114843B0FBF2F93A
:100F600070470020019002967F1C009600AB012282
:100F70000021204601F064BA022000F021BE0220C8
:100F800000F028BE012000F01BBE012000F022BEB0
:100F900010B59EB000200590DFF80004816921F4AF
:100FA000F87141F488718161016841F080510160FC
:100FB000022000F0EEF8082000F0EBF800F0E6F870
:100FC000DFF894444FF0A040E06000A900200190B9
:100FD000009000F0D6F808B100F044FA4FF4403029
:100FE00020610020A062A0612063206404202062B0
:100FF0000020A06300F0BAF860640020606100F097
:10100000BBF808B100F02EFA002104F10C0002F048
:1010100025FE08B100F026FA002104F10C0002F0D0
:101020005BFE059017A91220179000201C901B90C2
:10103000012018900520199000201A9004F10C004E
:1010400002F0E5FE08B100F00DFA00F09FF804F19F
:101050000C0002F09FFC08B100F004FA4FF0FF31E1
:1010600004F10C0002F0D5FC08B100F0FBF904F12A
:101070000C0002F014FD608104F10C0002F0B2FCDF
:1010800008B100F0EFF900F081F80020019000A90C
:1010900005200090002000F074F808B100F0E2F99B
:1010A00000202061A062A0612063206408202062EB
:1010B0000120A063002000F059F800206064606106
:1010C000012000F059F808B100F0CCF9002013908D
:1010D0000BA9242015904020169002200B9001208F
:1010E000129002201190002010900F9001200C907F
:1010F00003200D9000200E90149004F10C0003F0DA
:101100001CF808B100F0AEF904200B900BA90220E6
:101110000C9004200D9004F10C0003F00EF808B1BF
:1011200000F0A0F900220021122000F0D6FC1220CD
:1011300000F0F4FC4FF48040049003AA4FF4003018
:1011400003900221C54801F086F808B100F08AF941
:1011500004F10C0002F0CAFD08B100F083F91EB0E2
:1011600010BD00009A9999999999B9BFE06360629E
:101170000120E06260637047E06104F10C0002F05E
:101180005BBB029004F10C0003F094B9012000F065
:10119000F8B9069006A903200790002008904FF0A8
:1011A000904002F069BA10B588B000F026F800F05F
:1011B0000DF90820029000AB00F048F808B100F0EB
:1011C00051F900F0FDF800F049F808B100F04AF9D3
:1011D00000F0F0F8082200F042F808B100F042F9FF
:1011E0004FF4C021204601F003FA08B100F03AF9AB
:1011F00099490020487008B010BD10B588B0002093
:101200000090042003900020049005900690079021
:10121000FFF7AEFB00F01AF808B100F023F900ABBD
:1012200002220021FFF79CFB08B100F01BF900AB84
:1012300000F014F808B100F015F900AB082200F036
:101240000EF808B100F00EF908B010BD834C012271
:101250000021204601F088B99999B93F0422012163
:10126000204601F081B938B5044620680068400680
:101270000FD57A49784D09680220C1F8080101218B
:10128000204602F0ADFD28670221204602F0A8FDAD
:1012900068672046BDE8324002F06BBD38B5FFF705
:1012A00074FEFFF76CFE6C4C01202081A07988BB96
:1012B0006B4D012020716079401C607100F02BF8AB
:1012C000012808D16D1EF9D100206071E178481E17
:1012D0008041C00FE0704FF48C70A06540F6E4438D
:1012E000F020E065C82020664FF4B47060664FF4CB
:1012F000A070A066002004EB8001401C8A6D1203E0
:10130000B2FBF3F28A650528F5D360790428A4BFFF
:101310000120607131BD002000F0A3BC01B1704715
:1013200030B54D4C89B06078012835D1A0780128BE
:1013300002D0022803D02DE0FFF735FF2CE0FFF7A5
:101340005CFF00F043F84FF48050029000AB434D37
:101350000422012100F02BF808B100F083F800F01E
:101360002FF8022200F022F808B100F07BF800F01C
:1013700021F8012200F01AF808B100F073F84FF4D8
:10138000C021284601F034F908B100F06BF80020C4
:10139000607001E000F066F809B030BD1410024042
:1013A0009C010020580002400074004000212846A3
:1013B00001F0DAB80420019000AB002002907047E1
:1013C0000020019000AB04200290704700200090A4
:1013D00004200390002004900590069007900420BC
:1013E0000190704738B51C4C0FF28C0294ED1B0A2B
:1013F000E579D4ED1B0ABCEEC00A10EE100AB8EE77
:10140000400A70EEC00AFEEEEE0A10EE901A02EBF1
:10141000011131F8151021B1401C00EE100AB8EE90
:10142000400AFFF72FFB681CC0B20828A8BF0020A5
:10143000E07131BD280001401810024000740140E5
:101440005800002000040048BC000020BAF7FF1F2D
:10145000F5D8FFFF6CEEFFFF00000020C000002069
:1014600040420F0080B5FFF74DFDFFF78BFDFFF702
:1014700083FDFFF735FDF6E70000000000000000E7
:10148000000000000000000000000000000000005C
:10149000000000000000010000000000000001004A
:1014A000000000000000010000000000010000003A
:1014B0000000010000000100000001000000010028
:1014C0000000010000000100000001000000010018
:1014D0000100000001000100000001000100010006
:1014E00000000100010001000000010001000100F6
:1014F0000100010001000100002203F0CBB810B48C
:1015000050F8041B81B102681218001D50F8043B0A
:10151000DC0744BFA9F10104E31852F8044B43F877
:10152000044B091FF9D1EBE710BC704780B51B488D
:10153000016841F010010160032000F0C1FA0F20A2
:1015400000F005F800F002F8002002BD704710B569
:10155000044600F06AFA4FF47A71B0FBF1F000F043
:10156000E7FA002221464FF0FF3000F0B6FA0020E3
:1015700010BD0B480168491C0160704708480068AD
:10158000704711B581B0FFF7F9FF0446FFF7F6FF8A
:101590000199001B8842F9D313BD000000200240CE
:1015A000200200202DE9F843044641F288382078D3
:1015B000DFF89454C00714D5686800F00C000428C4
:1015C00007D0686800F00C0008283DD16868C003A7
:1015D0003AD52868C0F3404000281CBF6068012845
:1015E00017D12078DFF86474800714D5686810F08C
:1015F0000C0F07D0686800F00C0008285AD1686802
:10160000C00357D42868C0F3400000281CBF2069DD
:10161000012840F010812078000740F18180A16905
:10162000DFF82C0400296DD001210160FFF7A6FF2F
:101630000646686AC0F34000002871D1FFF79EFF9C
:10164000801B6428F5D3F4E00020A870FFF796FF14
:1016500007462868C0F3404028B1FFF78FFFC01B42
:101660004045F6D3E5E06068A870E86AA168000923
:1016700041EA0010E862606801280DD1FFF77EFFA3
:1016800007462868C0F340400028AAD1FFF776FF3C
:10169000C01B4045F5D3CCE0FFF770FF0746286834
:1016A000C0F3404000289CD0FFF768FFC01B4045B6
:1016B000F5D3BEE02069B0B101203860FFF75EFFCE
:1016C00006462868C0F3400028B9FFF757FF801B83
:1016D0006428F6D3ADE02868616920F0F80040EA9C
:1016E000C100286097E73860FFF748FF0646286882
:1016F000C0F3400000288ED0FFF740FF801B642815
:10170000F5D396E00160FFF739FF0646686AC0F33B
:10171000400028B1FFF732FF801B6428F6D388E031
:10172000207840074CD5E869DFF8289340F08050D6
:10173000E861D9F8000040F48070C9F80000FFF7B4
:101740001DFF0646D9F80000C00505D4FFF716FFB7
:10175000801B6428F6D36CE0286A20F0050028621C
:10176000FFF70CFF0646286AC0F3400028B1FFF7D8
:1017700005FF801B4045F6D35BE0286AE16820F056
:10178000050008432862E06801280CD1FFF7F6FE47
:101790000646286AC0F3400090B9FFF7EFFE801BB1
:1017A0004045F6D345E0FFF7E9FE0646286AC0F358
:1017B000400028B1FFF7E2FE801B4045F6D338E039
:1017C000E069002839D0696801F00C01082932D09D
:1017D000022822D100F034F806462868C0F34060A1
:1017E00028B1FFF7CBFE801B6428F6D321E06868A0
:1017F000616A20F474100843216A0843686001207C
:1018000000F01FF804462868C0F34060A8B9FFF74D
:10181000B5FE001B6428F6D30BE000F011F8044677
:101820002868C0F3406040B1FFF7A8FE001B6428A1
:10183000F6D3032002E0012000E00020BDE8F2839F
:1018400000203866FFF79ABE2DE9F843824D7E4EA0
:10185000044628680F4600F0070041F28838B84275
:1018600050D22868C00847EAC0002860286800F005
:101870000700B84219D12078800705D57068A168A3
:1018800020F0F000084370602078C00740F190809D
:101890006068012803D13168C1F3404104E0316838
:1018A000022803D1C1F3406121B97FE0C1F34001B7
:1018B00000297BD000F095F80746606801280AD11E
:1018C000706800F00C00042872D0FFF757FEC01BB0
:1018D0004045F5D35EE002280AD1706800F00C00A4
:1018E000082865D0FFF74AFEC01B4045F5D351E0FC
:1018F000706810F00C0F5BD0FFF740FEC01B404536
:10190000F6D347E02078800705D57068A16820F0FD
:10191000F000084370602078C0073DD5606801285A
:1019200003D13168C1F3404104E03168022803D19A
:10193000C1F3406121B939E0C1F34001002935D03C
:1019400000F04FF88146606801280BD1706800F004
:101950000C00042820D0FFF711FEA0EB0900404541
:10196000F4D317E002280BD1706800F00C000828AF
:1019700012D0FFF703FEA0EB09004045F4D309E0C5
:10198000706810F00C0F07D0FFF7F8FDA0EB09000E
:101990004045F5D3032022E02868C00847EAC0008C
:1019A0002860286800F00700B84201D0012016E046
:1019B0002078400705D57068E16820F4E0600843AE
:1019C00070602078000706D57068216920F46050A7
:1019D00040EAC10070600F20FFF7B9FD0020BDE8AC
:1019E000F2837168890840EA81007060FFF7C6BD24
:1019F0001A48016801F00C02082A14D1C1F383428D
:101A00000FF27803D25C806AC90309D500F00F0099
:101A10000FF278031249C05CB1FBF0F050437047FD
:101A20001048504370470E48704780B5FFF7E0FFFD
:101A30000A4A0FF2380312680B49C2F30312D25C50
:101A4000D0400860086802BD001002400000424219
:101A50008004424200700040002002400410024016
:101A600000127A0000093D00A000002000000000E4
:101A70000102030401020304060708090203040526
:101A8000060708090A0B0C0D0E0F101001020304C3
:101A900005060708090A0B0C0D0E0F102E480068EA
:101AA000C0F3022070470901002806D500F00F009E
:101AB0002A4A801800F8041C7047294A815470474C
:101AC00025490A684FF6FF031A4000F0070042EA72
:101AD0000020244A10430860704770B504460E4643
:101AE0001546FFF7DBFF00F00700C0F107010529ED
:101AF00028BF0421021D072A34BF0020C01E012276
:101B000002FA01F1491E3140814002FA00F0401E04
:101B1000284001432046BDE87040C4E7012100F0A1
:101B20001F029140104AFFE7400942F82010704719
:101B300010B5401EB0F1807F01D3012010BD0B4CC9
:101B400060600F214FF0FF30FFF7ADFF0020A06075
:101B500007202060002010BD0CED00E018ED00E033
:101B600000E400E00000FA0500E100E010E000E021
:101B700070B586B004463F49002818BF012C03D039
:101B8000022C18BF032C03D1086840F480200860A1
:101B900000A90FF2F000384E30F8145000950120E3
:101BA000019002900320039056F8240001F064FD98
:101BB00056F824000022294601F01BFE06B070BD35
:101BC0000FF2C0012C4B31F8101053F82000012205
:101BD00001F00FBE0FF2AC01274B31F8101053F893
:101BE0002000002201F005BEF0B5050085B00E46CC
:101BF000204803D1016841F40031016041681F4C65
:101C00000FF2880741F0010141606EB900A937F871
:101C10001500009000200190022002900320039004
:101C200054F8250001F028FD012E18D137F81500D1
:101C3000009000A90020029003200390104801901A
:101C400054F8250001F018FD0FF244002C5C00222E
:101C50000F2160B2FFF741FF60B2FFF75FFF05B0F1
:101C6000F0BD0FF22801054A31F8101052F820009B
:101C700001F0B9BD14100240A4000020B4000020FF
:101C8000000011104000000100028000010000006F
:101C9000060050F8041B61B150F8042BD30744BF71
:101CA000A9F101039A18002342F8043B091FFAD155
:101CB000EFE7704770B44FF0004591EA030C44BF62
:101CC0006B4002F00BBD00BF841A71EB030603D218
:101CD000001BB141121973414FF4001C1CEB410F62
:101CE00034BF7CEB430443E00C0DA4EB1356352EBC
:101CF00050DC45EAC323DB0A45EAC121C912B6F12B
:101D000020050DDD63FA05F6EB4086EA0305124275
:101D100018BF45F00105C01851F100010CD213E0C5
:101D200062FA06F5F2405540F3415A40B340F340A1
:101D30005A408018594107D349085FEA30005FEAEA
:101D4000350528BF45F0010501F58011420875F100
:101D5000004250F1000041EB045170BC4FF4001CF4
:101D60001CEB410F38BF70470020090D0905704773
:101D70001CEB410F10D252EA43060BD0BCEB410FD3
:101D800005D80C0DAB43661E342EB5DD02E0AB4327
:101D90008018594170BC704770BC70474FF4001CEC
:101DA0001CEB410F94BF1CEB430F09E041EA030C0D
:101DB00050EA4C0C52EA0C0C03D28B4208BF824210
:101DC000704714BF99429042704700004FF4001CC6
:101DD0001CEB410F94BF1CEB430F09E041EA030CDD
:101DE00050EA4C0C52EA0C0C03D2994208BF9042C4
:101DF000704714BF8B4282427047000010B5040048
:101E000001D1012010BD00F0EDF80020C4F8C4009D
:101E1000C4F8C800C4F8CC00C4F8D000C4F8D4009A
:101E2000C4F8D800207AC00717D52068DFF86C12F4
:101E3000884205D1DFF86802016841F00051016075
:101E400020680168226921F4704102F44042114384
:101E5000626902F4405211430160204600F021F80B
:101E6000207A800708D520680168E26821F4407173
:101E700002F4407211430160012084F8C100002285
:101E8000002084F8C0001C2101FB0041401C8A6135
:101E9000CA610A624A628A620A630628F3D3002092
:101EA00010BD704790F8C020012A01D10220704770
:101EB000012280F8C020022280F8C12011F1010F18
:101EC000FFE70068D0F8CC2304D122F0020141F0F2
:101ED000010104E022F00D02114341F00201C0F8BB
:101EE000CC130020704770B504460D46FFF746FB43
:101EF00006462068D0F88803C0030CD415F1010F02
:101F0000F7D0FFF73BFB801BA842F2D3072084F8F1
:101F1000C100032070BD00F0BAB870B590F8C130B0
:101F2000022B01D1022070BD022380F8C1309468D9
:101F3000D368056805290ED12968C90844EAC1019A
:101F400021F018011943296003681168596151682B
:101F50000268916117E005EBC115D5F88060F608BD
:101F600044EAC60424F018042343C5F8803004680A
:101F7000136804EBC114C4F894300368526803EB8F
:101F8000C111C1F89820012180F8C110002070BD56
:101F900010B590F8C020012A01D1022010BD012205
:101FA00080F8C020022280F8C1200529026804D1EF
:101FB000D36843F01003D36007E002EBC112D2F8FC
:101FC0008C3043F01003C2F88C300268DFF8D44044
:101FD000136854F821101943116000F0EAB8012089
:101FE00084F8C000022084F8C1007047DFF8B40014
:101FF00050F82510C90304D521680A6822F48032FC
:102000000A6050F82510890309D52168D1F8942376
:1020100012F0030F03D10A6822F400320A6050F86C
:102020002510490309D52168D1F8942312F00C0F2B
:1020300003D10A6822F480220A6050F825100903AF
:1020400009D52168D1F8942312F0300F03D10A6822
:1020500022F400220A6050F82510C90209D521682F
:10206000D1F8942312F0C00F03D10A6822F4801231
:102070000A6050F82500800209D52068D0F8941332
:1020800011F4407F03D1016821F4001101600120A7
:1020900084F8C100002084F8C00070BD00740140C5
:1020A0001810024078000020012380F8C03002237D
:1020B00080F8C1300368D3F898431443C3F89843B9
:1020C000012A14D0022A1AD0042A10D0082A16D0C5
:1020D000102A0CD0202A12D0402A08D0802A0ED0F4
:1020E000B2F5807F03D0B2F5007F08D010E002681F
:1020F00002EBC112D2F88C305B085B0006E002688C
:1021000002EBC112D2F88C3023F00203C2F88C30FB
:10211000DFF8282352F82130DB0304D503681C685C
:1021200024F480341C6052F821309B0309D50368E5
:10213000D3F8944314F0030F03D11C6824F4003443
:102140001C6052F821305B0309D50368D3F894432F
:1021500014F00C0F03D11C6824F480241C6052F886
:1021600021301B0309D50368D3F8944314F0300FD2
:1021700003D11C6824F400241C6052F82130DB02D7
:1021800009D50368D3F8944314F0C00F03D11C6839
:1021900024F480141C6052F82110890209D50168CA
:1021A000D1F8942312F4407F03D10A6822F400127C
:1021B0000A60012180F8C110002180F8C0100020C1
:1021C00010BD10B590F8C120022A1CBF90F8C020A5
:1021D000012A01D1022010BD012280F8C020022274
:1021E00080F8C1200268D2F8A0330C6823F0020303
:1021F00023434C6823F03C0323438C6823F470731F
:102200002343CC6823F4806323430C69C2F8A443BE
:1022100004684A69C4F8A82302688969C2F8AC1343
:102220000168C1F8A033C4E738B5044604F1C0051D
:10223000687802280ED094F8C000012801D102204D
:1022400032BD00F0A8F900F090FB0120687000207A
:1022500084F8C00032BD10B590F8C130022B1CBF0D
:1022600090F8C030012B01D1022010BD012380F86D
:10227000C030022380F8C13001290468D4F88033CB
:1022800006D002290DD0042914D008291BD022E041
:102290001168090C61F31243516804F56072D1634F
:1022A00019E01168090C61F3D543516804F56072B7
:1022B000116410E01168090C61F39853516804F53A
:1022C0006072516407E01168090C61F35B63516847
:1022D00004F5607291640168C1F8803369E7000019
:1022E00070B504460D4694F8C100164602281CBF7E
:1022F00094F8C000012801D1022070BD012084F8AB
:10230000C000022084F8C100052D29D12068026890
:10231000D0F8A013F36A21F480311943736922F0D5
:1023200020021A43B36922F400621A43F36922F4CB
:1023300080621A43336A22F0C0621A43736A22F041
:1023400000621A439200B36A920842EA8302336B36
:1023500022F000521A4302602068C0F8A01302E085
:10236000204600F01EFA1C2000FB05403168016287
:10237000052D71684162B1688162F168C16231699D
:10238000016329D8DFE805F01B150F090321206838
:10239000D0F8841341F020011CE02068D0F88413A9
:1023A00041F0100116E02068D0F8841341F00801D4
:1023B00010E02068D0F8841341F004010AE020689E
:1023C000D0F8841341F0020104E02068D0F88413AF
:1023D00041F00101C0F88413FFF759BE10B590F821
:1023E000C130022B1CBF90F8C030012B01D102205C
:1023F00010BD012380F8C030022380F8C130DFF81F
:10240000DC44036803EBC111D1F8B83023401468F1
:102410002343546823439468234314692343D468B3
:102420002343546943EA044394692343146AD269F9
:1024300023431A43C1F8B820BBE60000780000200F
:1024400030B590F8C140022C1CBF90F8C040012C60
:1024500001D1022030BD012480F8C040022480F860
:10246000C140052917D1012A09D0022A0BD0042A1C
:102470000DD0082A02BF19680268D16243E00268E1
:102480001968D1613FE00268196851623BE0026857
:102490001968916237E0012A06D0022A0BD0042A7B
:1024A00039D0082A3ED02EE01A68036803EBC11128
:1024B000C1F89C2027E004681A6804EBC1149C341E
:1024C000A2605A68FAB1026802EBC112D2F88040E9
:1024D00024F44054C2F88040026802EBC112D2F8E2
:1024E00080405D682C43C2F880405A68B2F5005FB6
:1024F00038D05A68B2F5405F05D19A68036803EB9B
:10250000C111C1F8A820012180F8C110002180F874
:10251000C010002030BD1A68036803EBC1119C3164
:10252000CA60F0E704681A6804EBC1149C342261A5
:102530005A68002AE7D0026802EBC112D2F8804044
:1025400024F44044C2F88040026802EBC112D2F881
:1025500080405D6844EA8504C2F880405A68B2F55C
:10256000005FC6D19A68A0E738B5044604F1C005FB
:10257000687802280ED094F8C000012801D102200A
:1025800032BD00F008F800F0ABF9012068700020BF
:1025900084F8C00032BD012084F8C00002206870B9
:1025A0002046704790F8C020012A01D102207047D0
:1025B000012280F8C020022280F8C1200268D2F8EF
:1025C00094331943C2F89413C3E090F8C020012A51
:1025D00001D102207047012280F8C020022280F839
:1025E000C1200268D2F898331943C2F89813B0E0BA
:1025F00090F8C020012A01D102207047012280F802
:10260000C020022280F8C1200268136819431160BB
:102610009FE02DE9F04704460D4694F8C1000228DA
:102620001FBF022084F8C10094F8C000012808BF31
:10263000022053D0012084F8C000E803DFF85CA535
:102640001BD5D4F8B000C0B1D4F8C400C0F830A095
:10265000D4F8C410DFF848058862D4F8BC30D4F848
:10266000B820D4F8B410D4F8C40000F0CBFE206831
:10267000C168D4F8B0201143C1600027DFF8248579
:10268000DFF8149559F8270005421FBF1C2000FBF6
:102690000746706A002814D0394600F024F8C0F8C4
:1026A00030A0C0F82880336BF26AB16A00F0AAFE4D
:1026B000206800EBC710D0F88C10726A1143C0F884
:1026C0008C107F1C052FDDD3206801682943016031
:1026D000012084F8C100002084F8C000BDE8F08724
:1026E000012084F8C000204600F01CBA90F8C120F8
:1026F000022A1CBF90F8C020012A01D10220704795
:10270000012280F8C020022280F8C1200268D2F89D
:10271000A0335B0841EA4301C2F8A01319E090F826
:10272000C11002291CBF90F8C010012901D102205C
:102730007047012180F8C010022180F8C1100168A3
:10274000D1F8A42342F00102C1F8A42301E0C2F8A9
:102750008413012180F8C110002180F8C0100020EE
:102760007047FF2908BF00F02DBA052908BF00F007
:1027700086BA00F005BB70477047704770477047D6
:102780007047704770477047704770477047704791
:102790007047704770477047704770477047704781
:1027A00070472DE9F041006800EBC113D3F8804079
:1027B00024012409C3F8804003F18004D3F8805039
:1027C000A76E666ED4F85480D0F8A083D2F814E0D7
:1027D00025F020054EEA0505D2F818E025F400653D
:1027E0004EEA0505D2F81CE025F480654EEA0505A1
:1027F000D2F820E025F0C0654EEA0505D2F824E0C5
:1028000025F000654EEA0505D2F828E02D014EEAD4
:10281000151525F4003E156BB5F1005F08BF4EF4A9
:10282000003ED2F834C02EF040054CEA050525F4F0
:10283000802E156D45EA0E0525F0FC7E956C45EA67
:102840000E0EDFF864532F4092F8385005F01F0544
:102850002F43D56B2F43BCF1000F03D1156C26F429
:1028600080762E43556CB5F5606F18BFB5F5F05FF7
:1028700002D1BCF1400F02D126F4F0562E43D56CA4
:1028800059B1022915D00ED3042918D03EBF28F41F
:102890008011D26A41EA021816E0D26A28F40031A7
:1028A00041EA420810E0D26A28F4802141EA820815
:1028B0000AE0D26A28F4002141EAC20804E0D26AA0
:1028C00028F4001141EA4218C3F880E0A766666662
:1028D0006565C0F8A083BDE8F08100000020003CE1
:1028E000F0B5006800EBC11101F1B8004FF0FF3402
:1028F000C56AD1F8B810012A14D0022A18D0042AC7
:1029000010D0082A14D0102A0CD0202A10D0402A27
:1029100008D0802A0CD0B2F5807F03D0B2F5007FBA
:1029200006D00AE05A68426000249A68826004E097
:1029300010245A68C2609A680261FE26A640B54318
:102940001E68DF681A693E435F6916433E439F690C
:102950003E43A6403543082A08BF11F0022F02D19A
:10296000D969A1400D43C562F0BD70B50068D0F8CB
:10297000B05300F56C7301295C689E6817D002297A
:1029800024D0042935D0082946D0102957D0202931
:102990006AD0402977D0802900F08880B1F5807F07
:1029A00000F09780B1F5007F00F0A68070BD13683D
:1029B000A90943EA8111137903F0040319439368C9
:1029C0001943C0F8B013126911434AE0136825F4A3
:1029D0007C6141EA831153689B0103F480731943BE
:1029E000936841EA8311C0F8B013126941EA821179
:1029F00037E0136825F47C3141EA033153681B0347
:102A000003F480431943936841EA0331C0F8B013DB
:102A1000126941EA023124E0136825F47C0141EA9D
:102A2000834153689B0403F480131943936841EA7C
:102A30008341C0F8B013126941EA824111E0136882
:102A400025F07C5141EA036153681B0603F0806363
:102A50001943936841EA0361C0F8B013126941EA6F
:102A60000261C0F8B01370BDD168300941EA0010AE
:102A70006109146844EA41111479926804F004046D
:102A8000214311434AE0D16826F4707040EA811076
:102A900024F4F861146841EA841154689268A4012E
:102AA00004F48074214341EA821137E0D16826F4AE
:102AB000704040EA013024F4F831146841EA0431EE
:102AC00054689268240304F48044214341EA0231AB
:102AD00024E0D16826F4701040EA814024F4F80123
:102AE000146841EA844154689268A40404F4801490
:102AF000214341EA824111E0D16826F0706040EA4A
:102B0000016024F0F851146841EA04615468926845
:102B1000240604F08064214341EA02615960986010
:102B200070BD0000002200F1C403052910D8DFE8C1
:102B300001F006080A0C0E03D0F8C42008E05A6819
:102B400006E09A6804E0DA6802E01A6900E05A696F
:102B5000104670470068154A4FF0FF31904208BF99
:102B6000052117D0124A904208BF002112D0114A05
:102B7000904208BF01210DD00F4A904208BF0221A8
:102B800008D00E4A904208BF032103D00C4A90425D
:102B900008BF04210846704778000020B5300008BF
:102BA0005F2F0008C52F0008E0FFFF7F1C000240D8
:102BB0003000024044000240580002406C000240D5
:102BC0008000024010B504462068D0F88813C90779
:102BD00009D500F562708168C90704D501214160FB
:102BE0002046FFF7C8FD2068D0F88813890709D56B
:102BF00000F562708168890704D502214160204692
:102C0000FFF7BAFD2068D0F88813490709D500F509
:102C100062708168490704D5042141602046FFF7AE
:102C2000ACFD2068D0F88813090709D500F562705B
:102C30008168090704D5082141602046FFF79EFD01
:102C40002068D0F88813C90609D500F5627081683C
:102C5000C90604D5102141602046FFF790FD206889
:102C6000D0F88813890609D500F562708168890655
:102C700004D5202141602046FFF782FD10BD10B52C
:102C800004462068D0F88813C90310D500F5627097
:102C90008168C9030BD54FF480314160012084F86D
:102CA000C100002084F8C0002046FFF76AFD2068BC
:102CB000D0F8881389030AD500F56270816889030A
:102CC00005D54FF4003141602046FEF78BFB2068AC
:102CD0004168C90707D5C168C90704D5012100F0BB
:102CE0004BF8FFF751FD20684168890707D5C16897
:102CF000890704D5022100F03FF8FFF746FD206860
:102D00004168490707D5C168490704D5042100F087
:102D100033F8FFF73BFD20684168090707D5C16814
:102D2000090704D5082100F027F8FFF730FD2068D7
:102D30004168C90607D5C168C90604D5102100F04D
:102D40001BF8FEF7EBFA20684168890607D5C168D1
:102D5000890604D5202181602046FFF713FD2068F5
:102D60004168490607D5C168490604D5402100F0ED
:102D700003F8FFF708FD10BD81602046052170476C
:102D800038B504460D46206800EBC510D0F8841015
:102D9000C90708D584308168C90704D5012100F02E
:102DA000DAF8FFF7F1FC206800EBC510D0F88410CA
:102DB000890708D584308168890704D5022100F08D
:102DC000CAF8FFF7E2FC206800EBC510D0F88410C9
:102DD000490708D584308168490704D5042100F0EB
:102DE000BAF8FFF7D3FC206800EBC510D0F88410C8
:102DF000090708D584308168090704D5082100F047
:102E0000AAF8FFF7C4FC206800EBC510D0F88410C6
:102E1000C90608D584308168C90604D5102100F0A0
:102E20009AF8FEF77BFA206800EBC510D0F8841002
:102E3000490608D584308168490604D5402100F050
:102E40008AF8FFF7A0FC206800EBC510D0F88410CA
:102E5000090608D584308168090604D5802100F070
:102E60007AF8FFF795FC206800EBC510D0F88410C5
:102E7000C90509D584308168C90505D54FF480712D
:102E800000F069F8FFF785FC206800EBC510D0F86A
:102E90008410890509D584308168890505D54FF4EA
:102EA000007100F058F8FFF777FC206800EBC510C0
:102EB000D0F88410490509D584308168490505D5C5
:102EC0004FF4806100F047F8FFF767FC206800EBE3
:102ED000C510D0F88410090509D58430816809052A
:102EE00005D54FF4006100F036F8FFF757FC206875
:102EF00000EBC510D0F88410C90409D5843081686E
:102F0000C90405D54FF4805100F025F8FFF747FCC0
:102F1000206800EBC510D0F88410890409D58430EE
:102F20008168890405D54FF4005100F014F8FFF7CB
:102F300032FC206800EBC510D0F88410490409D594
:102F400084308168490405D54FF4804100F003F8CE
:102F5000FFF720FC31BD416020462946704780B50F
:102F6000406A0168CA68D20303D50521FFF70CFC4B
:102F700001BDCA68920303D50521FFF706FC01BD18
:102F8000CA68520303D50521FFF700FC01BDCA68DA
:102F9000120303D50521FFF7FAFB01BDCA68D2026F
:102FA00003D50521FEF7BAF901BDCA68920202D520
:102FB000FFF7E8FB01BDC968490244BF0521FFF7DF
:102FC000E2FB01BD10B5446AFFF7C4FDC1B2206841
:102FD00000EBC110D0F88C20D20303D52046FFF7B8
:102FE000D3FB10BDD0F88C20920303D52046FFF709
:102FF000CCFB10BDD0F88C20520303D52046FFF740
:10300000C5FB10BDD0F88C20120303D52046FFF776
:10301000BEFB10BDD0F88C20D20203D52046FEF7AF
:103020007DF910BDD0F88C20520203D52046FFF761
:10303000AAFB10BDD0F88C20120203D52046FFF762
:10304000A7FB10BDD0F88C20D20103D52046FFF796
:10305000A0FB10BDD0F88C20920103D52046FFF7CD
:103060009BFB10BDD0F88C20520103D52046FFF702
:1030700094FB10BDD0F88C20120103D52046FFF739
:103080008DFB10BDD0F88C20D20003D52046FFF771
:1030900086FB10BDD0F88C20920003D52046FFF7A8
:1030A0007AFB10BDD0F88C00400044BF2046FFF7EB
:1030B00071FB10BD80B5406AFFF772FB01BD0000D7
:1030C000B0B581EA030C0CF0004C40F2FF7515EA34
:1030D00011541DBF15EA1357AC42AF4239E0E41951
:1030E00023EA455343F48013C90241F0004141EA09
:1030F000505EC7021100A7FB020200284FF000003B
:10310000EEFB01204FF00001E3FB072118BF42F066
:103110000102401800214941E3FB0E01A4F580643F
:103120000F0302D252004041494154F101046CDDC9
:10313000470872F1004250F1000051EB0451A1F533
:1031400080115CBF41EA0C01B0BD4CEA0551002082
:10315000B0BD05EA1357AC4214BFAF4241E050EA9C
:10316000410E1CBF52EA430E02E061460020B0BD92
:1031700024423C441BD15FEA070EF6D0090302BF8C
:1031800001460020AEF1140EB1FA81F7AEEB070450
:1031900001FA07FE0C37C7F1200100FA07F7C84013
:1031A0004EEA000E23EA455343F48013A2E733F0BE
:1031B0000043B3FA83F704BFB2FA82FE77440B3FB1
:1031C000E41BB7F1200E2FBF02FA0EF3BB40C7F18C
:1031D000200E22FA0EFE38BF43EA0E03BA40641CEA
:1031E00082E750EA410E14BF52EA430E6FF000012D
:1031F0004FF4001717EB430F8ABF194617EB410F27
:10320000B5E74CEA05510020B0BDD4F10104B4F19A
:1032100020070FDAC4F12007520828BF42F001024C
:1032200010FA07F501FA07F7E1BF2A43E0403843F7
:10323000E1400FE0352C98DCC7F1200452EA40024F
:1032400020FA07F218BF42F0010231FA07F0A1405C
:103250000A43002172F1004250F1000051EB0C01D1
:10326000B0BD00004FEAF17CBCF1E04C2CBFBCF5D6
:10327000001F11E05FEA4C0C34BFBCF17F5F2EE011
:103280005FEA9C0C4FEA0C1C4FEA3C0CC10071F148
:1032900000414CEB50707047C90241EA5051C002E6
:1032A00018BF41F0010141F000414FEA6C50C0F1FC
:1032B0000900212810D240EACC7CCCF1200C11FA74
:1032C0000CF070F10040CCF1200C21FA0CF00CF065
:1032D000004C40EB0C0070474FEACC70704749003F
:1032E00011F5001F04D84FEACC10FF30C00570471D
:1032F000C81770475FF0FF0C1CEAD05114BF61453E
:1033000006E0C110400721F0E04101F16051704733
:1033100079B900F0004100020AD0B0FA80FC00FA4E
:103320000CF001F16051A1EB0C5101EBD0214005F3
:10333000704741020CBF40F4E0016FF00001002033
:103340007047000083B582B09DED020B8DED000B40
:10335000DDE90023C3F30A5140F2FF72914208D025
:10336000002904BF190350EA113011D1104905B0EA
:1033700000BD190350EA113011D1039800284CBF49
:103380009FED090B9DED020B51EC100B05B000BD3C
:10339000002000900022064B02A801F055FADDE95A
:1033A000020105B000BD00000000000000000000A8
:1033B0000000F03F80B551EC100BFFF7C3FF41EC6C
:1033C000100B01BD08B901207047022180F82110BF
:1033D00001680A6843686FF30D121A4383681A4341
:1033E000C3681A4303691A4343691A4383691A433A
:1033F000C3691A430A6000214163012180F821104A
:103400000020704738B5044694F82000012801D107
:10341000022032BD00F013F82068016841F002017B
:103420000160016841F004010160016841F0080198
:103430000160016841F001010160002032BD0120FE
:1034400084F82000022084F82100206805686D08B7
:103450006D0005602046FFE710B5046863604068B2
:10346000102807BFA260E160A160E26010BD10B546
:10347000040001D1012010BD207910B9204600F0D0
:1034800017F8022020710020206101202071002007
:1034900010BD10B5040001D1012010BD0220207123
:1034A000204600F006F8002020612071607110BDF8
:1034B0007047704730B54379012B01D1022030BDF0
:1034C0000123437140F6FE750223037195400368A2
:1034D0001C68AC430D684968294391402143196039
:1034E000C02401680B6804FA02F223EA02020A60AF
:1034F0000121017100214171002030BD18B5002467
:10350000009400290068009000980CBF02F10801A7
:1035100002F114010818009000980360002012BD09
:1035200010B54279012A01D1022010BD0122427159
:103530000124022202718C40026813682343136045
:103540000029026811680AD1490714D5116801F0F1
:10355000380138290FD1516841F001010AE04903CF
:1035600009D5116801F46011B1F5601F03D15168EC
:1035700041F002015160FFE7012101710021417119
:10358000002010BD38B50024054600941DB195F803
:103590002900C00601D501243DE095F8290038B97D
:1035A0003348016841F001010160284600F048F805
:1035B0002868304A01680091009911406A681143F7
:1035C00000910099AA68114300910099AA6921F419
:1035D0004021114300910099EA6821F47051114390
:1035E000009100992A6921F400411143009100994A
:1035F0006A69114300910099EA69114300910099A9
:103600002A6A114300910099016095F8290010B9C8
:10361000012085F82900204632BD38B50446002532
:103620001CB194F82900C00601D5012506E02168E7
:103630000D60204600F005F884F82950284632BD78
:1036400070477047002180B190F82920D2060CD431
:1036500090F82920012A08D10268136843F0010379
:103660001360022280F8292000E0012108467047FB
:10367000181002408FFFBFFF2DE9F04F02460023D4
:10368000644DDFF89491DFF894A14FF00F0801200A
:103690000C68984000EA040E864540F09E804C6815
:1036A000022C18BF122C10D1DC0802EB840403F0AA
:1036B0000706276AB60008FA06FB27EA0B07D1F8C7
:1036C00010B00BFA06F63E4326625C00176891F8CC
:1036D00004B00326A640F6430BF0030B37400BFA69
:1036E00004FB4BEA070717604F68012F18BF022F32
:1036F00003D0112F18BF122F11D19768D1F80CB039
:1037000037400BFA04FB4BEA07079760576827EA34
:1037100000004F68C7F300179F4038435060D068DF
:1037200030408E6806FA04F42043D0604868C00038
:1037300053D5DAF8000040F00100CAF8000003F0A9
:103740000304980859F82060A40008FA04F7BE435F
:10375000B2F1904F08BF002718D0314FBA4208BFCE
:10376000012713D02F4FBA4208BF02270ED02E4F89
:10377000BA4208BF032709D02C4FBA4208BF04271A
:1037800004D02B4FBA420CBF0527062707FA04F4D2
:10379000344349F820406FEA0E002C684E6804401C
:1037A000F60348BF4EEA04042C606C684E6804407F
:1037B000B60348BF4EEA04046C60AC684E6804402F
:1037C000F60248BF4EEA0404AC60EC6820404C6846
:1037D000A40248BF4EEA0000E8605B1C102BFFF417
:1037E00056AFBDE8F08F0069084018BF0120C0B295
:1037F00070470AB101837047418370470D4A1368CF
:10380000034200D1704780B51060FDF747FD01BD50
:1038100000000000000401400800014018100240B0
:103820000004004800080048000C00480010004850
:10383000001400481404014038B5044600250CB9B2
:10384000012032BD94F84500C0B9204601F05BF973
:1038500020688068C00011D400F017F90546012DDA
:103860000CD0022084F845002068816821F0405186
:1038700081602068816841F08051816020688168A2
:1038800001F04051B1F1805F07D0042184F8451068
:103890000125A16C41F00101A16494F845100429AF
:1038A00072D0816849076FD4022184F84510B0F1C5
:1038B000A04F0CBFDFF818154FF0A041826802F04E
:1038C0000302012A02D10068C00711D4886800F001
:1038D0000300012802D10868C00709D4DFF8F40406
:1038E000016821F4403101600168626811430160A0
:1038F0002068DFF8E424C1681140C160A06B012892
:1039000014BF4FF480500020E169E26840EA413082
:103910001043A2681043626A012A08BF002905D13A
:10392000A16A491E490441F480310843E16A012932
:1039300002D0226B1143084321688A6812F00C0FF1
:103940000AD1CA68DFF894341A40CA60626BA16970
:10395000520042EA813108432168CA681043C860B6
:103960002068016B0909090101632069012805D15B
:103970002068016B226A521E114301630020A0647B
:10398000012084F8450003E0042084F84500012567
:10399000284632BD10B5044694F84400012801D1F0
:1039A000022010BD00F06BF801281AD094F84510E1
:1039B00022290CBF3221122184F845100021A16474
:1039C0001C2122681160DFF80C242168126812F0B3
:1039D0001F0F18BFB1F1A04F03D18A6842F0040253
:1039E0008A6012E010B5044694F84400012801D121
:1039F000022010BD00F04CF8012806D000F045F878
:103A000001281CBF012184F84510002184F84410CE
:103A100010BDF8B504460D46606908280CBF08269D
:103A20000C26FDF7ABFD074620680168314208D13E
:103A300015F1010FF8D0FDF7A1FDC01BA842F3D38B
:103A400015E0A16909B90C21016094F8450004282A
:103A50001CBF94F84500352807D094F84500252868
:103A60000CBF3520152084F845000020F2BD03204E
:103A700084F84500002084F844000120F2BD0120B4
:103A800084F84400204600F051BD204600F070BD8F
:103A9000012084F844006C21204600F098BD0068A5
:103AA0000C210160006C704710B504462068016865
:103AB000490702D54168490705D40168090728D597
:103AC0004168090725D594F84510042907D094F8D2
:103AD000451025290CBF3521152184F84510C168F2
:103AE00011F4406F04BFE16900290CD10168090796
:103AF00009D58168490704D4416821F00C0141606F
:103B000001E000F0A3F8204600F0FEFF0C20216841
:103B1000086020680168890602D54168890605D4D5
:103B2000016849062FD5416849062CD594F84510FF
:103B3000042907D094F8451015290CBF35212521FB
:103B400084F84510C16C11F0C00F09D0C16889011B
:103B500013D4C16811F4406F04BFE16900290CD18E
:103B60000168490609D58168090704D4416821F034
:103B70006001416001E000F069F82046FDF773FB49
:103B800060202168086020680168090602D5416844
:103B900009060BD40168C90502D54168C90505D4D9
:103BA0000168890523D54168890520D50168090682
:103BB00004D5062184F84510802110E00168C9056C
:103BC00005D5072184F845104FF4807107E001689E
:103BD000890506D5082184F845104FF4007101606D
:103BE00002E0042084F84500204600F08EFF2068A3
:103BF0000168C90615D54168C90612D5A16B01290E
:103C000002D0C068C00709D5042084F84500A06C24
:103C100040F00200A064204600F078FF21681020E8
:103C200008602068016849050FD5416849050CD531
:103C3000042184F84510A16C41F00801A1644FF4FF
:103C400080610160204600F0E1F810BD042084F896
:103C50004500A06C40F00100A064704770B50446B8
:103C60000E4694F84400012801D1022070BD0120C5
:103C700084F84400FFF709FF0546012D27D00120F5
:103C800084F84500012E2068816821F08041816020
:103C900004D12068816841F080418160206881689A
:103CA00041F000418160FDF769FC064620688068AC
:103CB00000280CD5FDF762FC801B0A28F6D30420EF
:103CC00084F84500002084F84400012070BD0020E5
:103CD00084F84400284670BD0068D0F8B40001297B
:103CE00001D1000C704700F07F00704710B504460A
:103CF00094F84400012801D1022010BDFFF7BFFE57
:103D0000012835D094F8451012290CBF3221222108
:103D100084F845100021A1646021226811602168A7
:103D2000CA68920203D54A6842F480624A606169B7
:103D3000082921684A6807D122F020024A602168D8
:103D40004A6842F0400201E042F060024A602168A5
:103D5000CA6892010CD4DFF82429126812F01F0FF0
:103D600018BFB1F1A04F03D18A6842F008028A60FF
:103D70004BE610B5044694F84400012801D1022016
:103D800010BD00F01DF8012819D021684A6822F002
:103D900060024A602168896849070DD494F845108B
:103DA00012291CBF94F84510322905D0FFF76DFE8B
:103DB000012804D0012100E0122184F8451024E6F6
:103DC000012084F844006021204600F000BC00007F
:103DD000000100500803005007C0F0FFFDBFFFFFC7
:103DE00000686022026002290AD00CD3042901D0A5
:103DF00003D308E08030C068704780308068704727
:103E0000803040687047D0F8800070477047F0B548
:103E10000246002092F84430012B01D10220F0BD6F
:103E2000012382F844301468A3685B0700F17F81A6
:103E30004E6806231F25052E0FD2276B5E43B54023
:103E400027EA050525631468256B4F680E687B43D8
:103E500006FA03F32B4323633EE00A2E13D2761FA8
:103E6000676B16FB03F6B54027EA05056563146822
:103E7000656B4F680E687F1F17FB03F306FA03F3A9
:103E80002B43636328E00F2E13D20A3EA76B16FB69
:103E900003F6B54027EA0505A5631468A56B4F68CE
:103EA0000E680A3F17FB03F306FA03F32B43A363E1
:103EB00012E00F3EE76B16FB03F6B54027EA050557
:103EC000E5631468E56B4F680E680F3F17FB03F35B
:103ED00006FA03F32B43E36307231468A56815F080
:103EE0000C0F46D10D680B2D13D30A3DA66905EBC7
:103EF000450503FA05F526EA0505A5611468A569D7
:103F00000F688E680A3F07EB4707BE403543A5613F
:103F100010E005EB4505666903FA05F526EA050597
:103F20006561146865690F688E6807EB4707BE40D6
:103F30003543656115684C69EE680F69C6F3C106C3
:103F40007600B440DFF83867012F06D039D3032F4D
:103F50001DD00FD3042F27D033E02F6E3E402E66A6
:103F600015682E6E0F6844EA876444F000443443B9
:103F70002C6655E06F6E3E406E6615686E6E0F687B
:103F800044EA876444F0004434436C6648E0AF6E12
:103F90003E40AE661568AE6E0F6844EA876444F032
:103FA00000443443AC663BE0EF6E3E40EE6615687D
:103FB000EE6E0F6844EA876444F000443443EC66D4
:103FC0002EE02C6E0E6804F0F844B4EB866F03D13B
:103FD0002C6E640064082C661468656E0E6805F02B
:103FE000F845B5EB866F03D1656E6D006D086566AB
:103FF0001468A56E0E6805F0F845B5EB866F03D121
:10400000A56E6D006D08A5661468E56E0E6805F076
:10401000F845B5EB866F03D1E56E6D006D08E5667A
:104020001468A56805F00305012D02D12568ED0788
:1040300045D40E680125B540CE68012E05D0D4F8D0
:10404000B030AB43C4F8B0302DE0D4F8B0603543A5
:10405000C4F8B0500D6814680B2D12D3093DA66941
:1040600005EB4505AB4026EA0303A36113689C6991
:104070000E688D68093E06EB4606B5402C439C61F0
:1040800011E06D1C666905EB4505AB4026EA0303AC
:10409000636113685C690E688D68761C06EB4606E2
:1040A000B5402C435C610968DFF8D035102902D196
:1040B0001C68240203E0112903D11C68E4013AD4EE
:1040C00004E0122937D11C68640234D41468B4F1B6
:1040D000A04F0CBFDFF8AC554FF0A045A66806F026
:1040E0000306012E02D12668F60720D4AE6806F03A
:1040F0000306012E02D12D68ED0718D4102906D130
:10410000B4F1A04F17D1196841F400010DE0112955
:1041100006D1B4F1A04F0ED1196841F0807104E0CE
:10412000122908D1196841F48001196003E00420C4
:1041300082F845000120B9E10000F0B502460020F8
:1041400092F84430012B01D10220F0BD012382F806
:1041500044301469DFF83035002C1CBF8C69012C09
:1041600028D14C68012C20D10C688D6A2402012DC5
:1041700002D02C43CD6A2C439C6023461468E36430
:1041800013689C6824074DD4DC6824F44014DC6078
:104190004B6A14680D6A5B05002DE56839D1CE695C
:1041A00043EA06532B43E3603CE0042082F84500D9
:1041B0000120E5E75C6864B914681C608C695C6088
:1041C0008C698D6A641E012D02D02C43CD6A2C436C
:1041D0009C6014681D68AC4213D14C6806256C4382
:1041E000A41C9D681F26A640B5430E6806FA04F479
:1041F0002C435D689C606D1E5D60C1D11368DC64FA
:10420000BEE7042082F84500002082F84400012027
:10421000F0BD2B43E360CB69012B03D1042082F86E
:10422000450001201468A568072315F00C0F5BD129
:10423000E56825F00075E5608D6A0C6A012D05D1F1
:104240001568EE6846EA4464EC6005E0012C03D191
:10425000042082F8450001200D6814680B2D13D34B
:104260000A3DA66905EB450503FA05F526EA0505AD
:10427000A5611468A5690F688E680A3F07EB4707B8
:10428000BE403543A56110E005EB4505666903FABC
:1042900005F526EA05056561146865690F688E688D
:1042A00007EB4707BE403543656115684C69EE680A
:1042B0000F69C6F3C1067600B440DFF8C463012F6E
:1042C00006D039D3032F1DD00FD3042F27D033E0CE
:1042D0002F6E3E402E6615682E6E0F6844EA876486
:1042E00044F0004434432C6655E06F6E3E406E66E9
:1042F00015686E6E0F6844EA876444F000443443E6
:104300006C6648E0AF6E3E40AE661568AE6E0F68F4
:1043100044EA876444F000443443AC663BE0EF6E0B
:104320003E40EE661568EE6E0F6844EA876444F01E
:1043300000443443EC662EE02C6E0E6804F0F84422
:10434000B4EB866F03D12C6E640064082C6614688D
:10435000656E0E6805F0F845B5EB866F03D1656EA6
:104360006D006D0865661468A56E0E6805F0F84569
:10437000B5EB866F03D1A56E6D006D08A566146858
:10438000E56E0E6805F0F845B5EB866F03D1E56E76
:104390006D006D08E5661468A56805F00305012D3C
:1043A00002D12568ED0745D40E680125B540CE68D9
:1043B000012E05D0D4F8B030AB43C4F8B0302DE0B6
:1043C000D4F8B0603543C4F8B0500D6814680B2DB4
:1043D00012D3093DA66905EB4505AB4026EA030368
:1043E000A36113689C690E688D68093E06EB46065A
:1043F000B5402C439C6111E06D1C666905EB4505D9
:10440000AB4026EA0303636113685C690E688D683C
:10441000761C06EB4606B5402C435C610968DFF864
:104420005C32102902D11C68240203E0112903D157
:104430001C68E4013AD404E0122937D11C686402F4
:1044400034D41468B4F1A04F0CBFDFF838524FF0E9
:10445000A045A66806F00306012E02D12668F607DD
:1044600020D4AE6806F00306012E02D12D68ED07B8
:1044700018D4102906D1B4F1A04F17D1196841F40E
:1044800000010DE0112906D1B4F1A04F0ED1196839
:1044900041F0807104E0122908D1196841F48001CB
:1044A000196003E0042082F845000120002182F811
:1044B0004410F0BD70B590F844300022012B01D1BA
:1044C000022070BD012380F844300368B3F1A04F8F
:1044D0000CBF6C4C4FF0A0449D6805F00305012D06
:1044E00002D11B68DB0718D4A36803F00303012B78
:1044F00002D12368DB0710D4604B644D1C682C404C
:104500001C601C680D684E68896835432943456BFB
:1045100041EA45312143196003E0042180F8451048
:104520000122002180F84410104670BD38B50446C1
:104530002068816801F00301012902D10168C907DF
:1045400014D481686FF39E1179B9816841F001013B
:104550008160FDF713F8054620680068C00705D4A0
:10456000FDF70CF8401B0228F6D327E0002032BDEF
:1045700038B504462068816801F0030101291BD188
:104580000168C90718D5816801F00D01012912D110
:10459000816841F002018160032021680860FCF716
:1045A000EDFF054620688068C00705D5FCF7E6FFEB
:1045B000401B0228F6D301E0002032BD042084F81D
:1045C0004500A06C40F00100A064012032BD70B530
:1045D00004462068826812F00C0F4DD08268920168
:1045E00012D5E269012A04BFA269012A0CD10C216B
:1045F000274A00E0521E03685B0602D4002AF9D164
:1046000031E04022026001E060290CD0206882681D
:10461000520706D58268920703D4826842F01002DE
:1046200082600C2912D020688268120706D5826841
:10463000920703D4826842F020028260602903D08E
:104640006C2903D10C2502E0082500E00425FCF7C5
:1046500095FF06462068806828420DD0FCF78EFF43
:10466000801B0B28F6D3042084F84500A06C40F092
:104670000100A064012070BD002070BD080300503F
:1046800000F0FF830001005014020020E010FFFF43
:104690000094090000B500BF1300964694461039F7
:1046A00028BFA0E80C50FAD85FEA417C28BF0CC0B4
:1046B00048BF40F8042BC90728BF20F8022B48BF89
:1046C00000F8012B00BD000070B44FF0004591EAE6
:1046D000030F44BF6B40FDF7F7BA00BF841A71EBBC
:1046E000030604D26E40001BB141121973414FF40E
:1046F000001C1CEB410F34BF7CEB430684E00C0D27
:10470000A4EB1356362E7DDC012E43DC45EAC32391
:1047100043EA525312BFD20292025B08240545EAD3
:10472000C12141EA5051D2EBC020994125D407D193
:10473000B0FA80F610FA06F164D00020203608E0C6
:10474000B1FA81F6B140C6F1200220FA02F211431B
:10475000B0404FEAF474B4EB465434F001064FEA2B
:1047600074040AD8D6F50016760D04F00044F04023
:1047700061FA06F25040F1404840C00A40EA415018
:1047800021F0004128BF5FEA500550F1000044EBE2
:10479000D12137E045EAC323DB0A45EAC121C90A32
:1047A000B6F120050EDD42EA0242120CC5F12006E8
:1047B00003FA06F6EB4042EA06056D42984161F1C4
:1047C00000010DE062FA06F5F240554063FA06FC7E
:1047D00082EA0C02F3405A406D42904161EB0301C2
:1047E00011F4801F05D1641E620502D06D004041A6
:1047F000494121F48011430875F1004350F1000054
:1048000041EB045170BC70471CEB410F15D223F0F3
:10481000004352EA43060BD04FEA4C0CBCEB410F6D
:1048200004D80C0D661E342EB7DDEBE7801A9941D3
:1048300050EA410608BF0021E4E708BF1CEB430F24
:1048400028BF6FF00001DDE72DE9704C04462DED27
:10485000088BD4E9000143EC182B00F058F9064608
:1048600051EC180B00F053F90E9D310006D50028CD
:104870004AD4022805D184ED008B40E1022EF8D104
:1048800021E050B9D4E900010022334B00F060F977
:104890000FD084ED008B002031E1012815D1D4E93F
:1048A000000100222D4B00F053F918BF84ED008B5E
:1048B00050D100F05DF9212101604FF0FF306FF021
:1048C0000041C4E90001022019E17EB984ED008BAA
:1048D0002946204600F052F9040018BF012C40F090
:1048E0000D8100F045F92221016007E1D4E90001C2
:1048F0000022194B00F02CF90FD151EC180BFEF7E8
:10490000DFFBC4E9000125E094ED009B144B51EC62
:10491000190B0022FDF75AFA0BD251EC180B0023A9
:10492000FEF7CEFBC4E90001BDEC088B0020BDE81A
:10493000708C01220B4BFDF731FA15D851EC180B96
:104940000022054BFEF7BCFBC4E9000100F010F9A2
:10495000222101600120D2E00000F07F0000F0FF82
:1049600000C89CC000C89C40384A394BFEF7A8FBE1
:1049700000220023FDF72AFA34BF9FED360B9FED8E
:10498000370B53EC102BFDF795F900F081F9064633
:1049900000F0A4F941EC1A0B4FF07842314BFEF7CE
:1049A0008FFB02460B4651EC190BFFF78DFE82463A
:1049B0008B4653EC1A2B2C482C49FEF781FB024600
:1049C0000B4650465946FFF77FFE6FF00102284B19
:1049D000FDF7E4F941EC190B05D80022254BFDF752
:1049E000F5F9C0F07D8053EC192BFEF769FB41EC23
:1049F0001A0B214A214BFEF763FB214A214BFDF79D
:104A000059F953EC1A2BFEF75BFB1F4A1F4B41EC85
:104A10001B0B51EC1A0BFEF753FB1D4A1D4BFDF708
:104A200049F953EC1A2BFEF74BFB1B4B0022FDF709
:104A300041F953EC192BFEF743FB41EC190B9FEDA9
:104A400001AB2BE0000000000000F03FFE822B6570
:104A50004715F73F000000000000E0BF0000000025
:104A60000000E03F422EE63FF2E4D5BCE7E84B3ED3
:104A7000FFFF8FBC0000903C112E5781A03F503F9C
:104A80005843128C8F71BC3F4BE8A541B752013F90
:104A90000BBDF3DAE8708C3F0000E03F51EC1B0BDC
:104AA00053EC192BFDF706F953EC1A2BFDF702F91D
:104AB00082468B4651EC1B0B53EC192BFFF704FE7F
:104AC00053EC1A2BFDF7F6F802460B4650465946B2
:104AD00000F01AF953EC182BFEF7F2FA41EC180B20
:104AE00084ED008BA919204600F048F8040018BF97
:104AF000012C03D100F03CF8222101602046BDECDE
:104B0000088BBDE8708C704770477047704703B4DE
:104B1000DDE90023C3F30A5140F2FF72914206D04F
:104B200001B10CE0190350EA113006D00BE0190373
:104B300050EA113014BF0220012002B070474FF03C
:104B4000FF3002B070476FF0010002B07047000004
:104B500090420CD141EA030C50EA4C0C07D0994228
:104B600005D14FF4001C1CEB410F38BF8942704740
:104B7000014800F0ECB90000B800002070B5044610
:104B80000D466068C0F30A5040F2FF71884207D1B9
:104B90006068000304BF2068002817D0022070BDA1
:104BA00020B9204600F0D4F9012867DA012D0FDB87
:104BB00040F2FF71091A8D420AD3606800284CBF89
:104BC0009FED2F0B9FED300B84ED000B012070BD8E
:104BD0004142A942616806DA6FF31E51401941EA69
:104BE0000050606041E0401E63680122451962F395
:104BF0001F5305F1350001F000416360352803D3F0
:104C000061600020206070BD002215F11F0F04DAE2
:104C100022682360002020356060684213D0521E55
:104C200025689241C0F12003D2439D4045EAD272EB
:104C300025686668C54006FA03F32B432360636862
:104C400023FA00F06060606808436060B2F1004FD2
:104C500003D80DD12078C0070AD52068401C2060F9
:104C6000206828B96068401C60604FF0FF3070BD5C
:104C70006068884204BF20680028F6D1002070BD1B
:104C8000000000000000F0FF000000000000F07FC6
:104C9000F446400D40EAC120490006D200F00EF86B
:104CA000004248BF6FF00040604700F007F84FF047
:104CB000004188428CBF08464042604740F00040B7
:104CC000490DA1F58061491C05D4D1F11F0154BFE4
:104CD000C840C01770474FF000007047010040F116
:104CE0000780F446404200F003F851F0004160476D
:104CF00009D0B0FA80F18840C91CC1F5846109056A
:104D000001EBD02140057047F0B540F2FF7581EA14
:104D1000030C0CF0004C15EA11541DBF15EA135793
:104D2000AC42AF42E5E0BC41C1F31301C3F313034E
:104D3000801A994143F4801304D2641E4000494113
:104D400080185941C90241EA5051B1FBF3F603FB07
:104D50001611A2FB0675D7EBC020A94102D2761E20
:104D600080185941C90241EA5051B1FBF3FE03FBDF
:104D70001E11A2FB0E75D7EBC020A94103D2AEF1E4
:104D8000010E80185941890241EA9051760546EAA0
:104D90008E2EB1FBF3F603FB1611A2FB0675D7EBC3
:104DA0008020A94102D2761E80185941C90241EAE9
:104DB00050514EEA060EB1FBF3F603FB1611A2FBAF
:104DC0000675D7EBC020A94102D2761E8018594142
:104DD000C90241EA5051B1FBF3F703FB1711A2FBE3
:104DE0000735D3EBC020A94167F100070CBF004293
:104DF00047F0010766F3D5274FEA1E31B80814F5CE
:104E0000806412DDBD0775F1004250EB0E5051EB8E
:104E1000045111F5801F5CBF41EA0C01F0BD4CF05C
:104E20007F6141F0E0410020F0BDBD076D0840EA20
:104E30000E5041F48011D4F10104B4F120060ADAD5
:104E4000C4F120060200E04001FA06F3E1401843F5
:104E5000B24015430EE0342C13DCC6F1200445EAC1
:104E600040056D0820FA06F2154321FA06F0A1402C
:104E70000D43002175F1004250F1000051EB0C018F
:104E8000F0BD00205FEA0C01F0BDCFB992185B4184
:104E9000B3FA83F704BFB2FA82F6BF190B3FB7F13A
:104EA00020062FBF02FA06F3BB40C7F1200622FA04
:104EB00006F638BF3343BA401CB1E419641E33E729
:104EC0007F4231F00041B1FA81F404BFB0FA80F6BC
:104ED000A4190B3CB4F120062FBF00FA06F1A14043
:104EE000C4F1200620FA06F638BF3143A0403C1B2F
:104EF0001AE7AC421ABF05EA1357AF4212E050EA74
:104F000041061CBF52EA4306BFE750EA410730465C
:104F100061461CBF41EA0551F0BD52EA430C08BF8F
:104F2000C143F0BD00204FF4001616EB410F98BFAF
:104F300016EB430F08BF16EB410F24BFC14305E03A
:104F400016EB430F0CBF61464CEA0551F0BD7047AC
:104F500030B4436803F0004201211B031B0B436084
:104F600004BF0368002B08D10DE00368DD0F45EA9C
:104F7000440444605B000360491E4468E302F4D5C6
:104F800023031B0B436043681A434260084630BC4E
:104F9000704700007047FEE7FEE7FEE7FEE7704758
:104FA0007047704710B5224C2078401C2070C0B26A
:104FB000642803DBFCF7DDFA002020701D4801782F
:104FC000A078012926D16178491C6170C9B20529F0
:104FD00020DB00216170184B18490A881B68C3F850
:104FE0001C22E2786AB9401CC0B21F2812DB0A8872
:104FF00020320A8000200988B1F5247F0ADB0121D4
:1050000007E00A88521E0A800988B1F5807F01DC1A
:105010000021E170A07010BD0948FEF745BD0120D8
:10502000FEF7ECBB002100E005210348FDF799BB2A
:105030002402002000000020C0000020BC0000204E
:105040000C0000201448154A016841F47001016009
:105050001348016841F0010101604168114041605D
:10506000104A0168114001600F4A016821F4802153
:105070000160416821F4FE014160C16A090909012A
:10508000C162016B11400163002181604FF000603B
:10509000064908607047000088ED00E00CC07FF80A
:1050A00000100240FFFFF6FECCFC00FF08ED00E020
:1050B00010B5074979441831064C7C44163404E095
:1050C0000A68081D511888470146A142F8D110BD51
:1050D0000800000028000000BBCBFFFF68010000B3
:1050E000C00000200000000017C4FFFFC000000047
:1050F0004001000000000020000000004EF6885132
:10510000CEF20001086840F4700008604FF00070B3
:10511000E1EE100A7047000000F00BF8002801D003
:10512000FFF7C6FF0020C046C046FBF72DF800F091
:1051300002F80120704700F001B800000746384629
:1051400000F002F8FBE7000080B5C046C046024A06
:1051500011001820ABBEFBE7260002000148804783
:1051600001480047455000086D510008C046C04640
:10517000FFF7C4FFFFF7D0FFFFF7FEBFFFF7FEBF4B
:10518000FFF7FEBFFFF7FEBFFFF7FEBFFFF7FEBF53
:10519000FFF7FEBFFFF7FEBFFFF7FEBFFFF7FEBF43
:1051A000FFF7FEBFFFF7FEBFFFF7FEBFFFF7FEBF33
:1051B000FFF7FEBFFFF7FEBFFFF7FEBFFFF7FEBF23
:1051C000FFF7FEBFFFF7FEBFFFF7FEBFFFF7FEBF13
:1051D000FFF7FEBFFFF7FEBFFFF7FEBFFFF7FEBF03
:1051E000FFF7FEBFFFF7FEBFFFF7FEBFFFF7FEBFF3
:1051F000FFF7FEBFFFF7FEBFFFF7FEBFFFF7FEBFE3
:10520000FFF7FEBFFFF7FEBFFFF7FEBFFFF7FEBFD2
:10521000FFF7FEBFFFF7FEBFFFF7FEBFFFF7FEBFC2
:10522000FFF7FEBFFFF7FEBFFFF7FEBFFFF7FEBFB2
:10523000000101000101000000000000000000006A
:10524000000000000000000000000000000000005E
:10525000000000000000000000000000000000004E
:10526000000000000000000000000000000000003E
:10527000000000000000000000000000000000002E
:10528000000000000000000018010000F000000015
:10529000C8000000680100004001000000401C44FC
:1052A00000000000000000000000020000000400F8
:1052B00000000800000010000000200000000100B5
:1052C00000000000000000000102030406070809B6
:1052D00000127A000004004800040048000400485E
:1052E0000004004800000048000000000001000029
:040000050800516D31
:00000001FF
