:020000040800F2
:100000000080002081300008C9300008C930000895
:10001000C9300008C9300008C930000800000000DD
:10002000000000000000000000000000C9300008CF
:10003000C930000800000000C930000811030008A2
:10004000C9300008C9300008C9300008C9300008AC
:10005000C9300008C9300008C9300008C93000089C
:10006000C9300008C9300008C9300008C93000088C
:10007000C9300008C9300008C9300008C93000087C
:10008000C9300008C9300008C9300008C93000086C
:10009000F1030008C9300008C9300008C930000861
:1000A000C9300008C9300008C9300008C93000084C
:1000B000C9300008C9300008C9300008C93000083C
:1000C000C9300008C9300008C9300008C93000082C
:1000D000C9300008C9300008C9300008C93000081C
:1000E000C9300008C9300008F5030008C93000080D
:1000F000C9300008C9300008C9300008C9300008FC
:10010000000000000000000000000000C9300008EE
:10011000C9300008C9300008C9300008C9300008DB
:10012000C9300008C9300008C9300008C9300008CB
:10013000C9300008C93000080000000000000000BD
:10014000C9300008C9300008C930000800000000AC
:10015000000000000000000000000000000000009F
:100160000000000000000000C9300008C93000088D
:10017000C93000080000000000000000000000007E
:0801800000000000C930000876
:1001880008B54FF40030012102F0A0FC4FF48020A4
:10019800012102F09BFC4FF40020012102F096FCA3
:1001A8004FF48010012102F091FC4FF4001001215E
:1001B80002F08CFC4FF480000121BDE8084002F0F9
:1001C80085BC00BF08B54FF40030002102F07EFC6A
:1001D8004FF48020002102F079FC4FF40020002128
:1001E80002F074FC4FF48010002102F06FFC4FF411
:1001F8000010002102F06AFC4FF480000021BDE8E5
:10020800084002F063BC00BFF0B583B004466846FE
:100218001E460F46154602F02FF9124830F81430E2
:1002280000936FB98DF80470BEB98DF8076000EBC4
:1002380084006946D0F8B00002F0C0F803B0F0BD01
:10024800002D18BF0125012203238DF806508DF8D3
:1002580004208DF80530002EE7D001238DF80730F3
:10026800E5E700BF00000020064B10B4044603EB8E
:1002780080000A46D0F8B00033F814105DF8044B3B
:1002880002F024B900000020044B03EB800233F88D
:100298001010D2F8B00002F001B900BF0000002031
:1002A80000F06EB900F0C4B900F0C4B900F0D0B9DC
:1002B80000F0E0B930B591B001A802F043FA029B12
:1002C8000849094A094CA1FB03139B09013BF02586
:1002D80000200721536084F823509060116011B00A
:1002E80030BD00BFD34D621010E000E000ED00E02B
:1002F80082B0044A0190019B13601368002BFCD163
:1003080002B0704724030020054B1A6812B11A681E
:10031800013A1A60034A1368013B1360704700BF33
:10032800240300200C02002008B502F08DFC02F026
:10033800CFFC02F005FD01F00DF9094A09496423D3
:10034800136001E0136813B10B68052BFAD1064B53
:1003580000221A705A709A70BDE8084002F05ABD1F
:100368000C020020400300202803002010B504469A
:1003780002F0D0FEC1B22046BDE8104002F030BD08
:10038800084A108880B2431E9BB2138040B10649C8
:1003980006480B78DBB25A1CD2B20A70C05CC0B2F5
:1003A800704700BF9804002028030020980300200D
:1003B800034B9878A0F10100B0FA80F0400970472B
:1003C80028030020034A04490023137053700B804C
:1003D800937070472803002098040020014B188868
:1003E800C0B270479804002000F048B908B5002052
:1003F80000F0B8FB1220BDE8084001F06DBF00BF57
:1004080010B50446E20621484FF0100125D502F048
:1004180059F8A3061D484FF0200125D502F052F8DF
:1004280062061A484FF0400125D502F04BF8230622
:1004380016484FF0800125D402F046F80421012225
:10044800124802F043F80220FFF752FF0F48042138
:100458000022BDE8104002F039B802F035F8A306D2
:100468000A484FF02001D9D402F02EF86206074856
:100478004FF04001D9D402F027F8230603484FF083
:100488008001D9D502F01EF8D8E700BF000C00485B
:1004980010B50446E20721484FF0100125D502F0B7
:1004A80011F8A3071D484FF0200125D502F00AF8DE
:1004B80062071A484FF0400125D502F003F82307D8
:1004C80016484FF0800125D401F0FEFF04210122D7
:1004D800124801F0FBFF0220FFF70AFF0F48042132
:1004E8000022BDE8104001F0F1BF01F0EDFFA307C5
:1004F8000A484FF02001D9D401F0E6FF6207074807
:100508004FF04001D9D401F0DFFF230703484FF033
:100518008001D9D501F0D6FFD8E700BF000C00480C
:1005280010B50446FFF76CFF2046BDE81040FFF702
:10053800AFBF00BF10B5012104460022054801F0F5
:10054800C5FF2046FFF75CFF2046BDE81040FFF7D7
:100558009FBF00BF000C004810B5012104460A46A1
:10056800054801F0B3FF2046FFF74AFF2046BDE8E3
:100578001040FFF78DBF00BF000C0048704700BF58
:10058800F0B52A4E83B04FF48010012102F09EFA94
:100598000124002530466946F023032700938DF88F
:1005A80004408DF806508DF8057001F007FF072309
:1005B8006946304600938DF804408DF806508DF852
:1005C800057001F0FBFE30462A46042101F07EFF4B
:1005D800304621462A4601F079FF2A460221304654
:1005E80001F074FF1020FFF783FE3020FFF708FFAB
:1005F8000520FFF77DFE3020FFF702FF2046FFF7BA
:1006080077FE3020FFF7FCFE2020FFF7F9FE2820B8
:10061800FFF790FF0C20FFF78DFF2046FFF78AFFBA
:100628000620FFF787FF03B0F0BD00BF000C0048AD
:10063800FFF792BF032988BF0021044B5B5C132896
:1006480088BF00201844C0B2FFF774BF7831000893
:1006580010B582B0002304460193019BE05CFFF7CC
:100668007BFF019B01330193019BE35C002BF4D1D9
:1006780002B010BD0120FFF75DBF00BF4D490B68F8
:1006880030B54D4C4D4D9BB2238022882B881A40A3
:10069800920589B007D54FF6FF5249480A6002789B
:1006A8000132D2B2027022881A40100439D422884A
:1006B80002F4806213422BD1228802F400521342C2
:1006C80003D03C4A4DF6FF711160228802F4805233
:1006D800134214D1228802F4807213420DD0354A95
:1006E800384B4FF6FF6111601B6819041DD4344B59
:1006F80000225A60072000F035FA09B030BD2D4BB2
:100708004EF6FF721A60002000F02CFA2B88E1E701
:10071800284A2D4B4FF6FF315B68116098472B88AC
:10072800CAE700F033FF2B88C1E725494B6801333E
:100738004B604B68032BDDD952F8043C13F00803D7
:10074800A2F10402D6D11268204892B28A6050F809
:10075800042B08AC04EB8304013392B2082B44F851
:10076800202CF4D18B681A4A124843F001038B609D
:100778008B689BB213608B6823F001038B608B68D6
:100788009BB2136003680B4A5B05FBD54FF6FF333A
:100798000E481360002308AA02EB8302013352F8C3
:1007A800202C082B92B240F8042BF4D100234B6084
:1007B800A0E700BF445C00409A040020F404002035
:1007C8002C030020485C004070020020005C0040C0
:1007D800405C0040034B9B7A13B1034B05221A601F
:1007E800704700BFD004002040030020014B0422C2
:1007F8001A60704740030020034B1A78202A04BF70
:1008080000221A70704700BF38030020704700BFED
:10081800212810B5034603D0202810D0022010BD8F
:100828000E4B1A68137803F07F03212BF6D10C497D
:1008380091610024548220468847204610BD074A0B
:100848001268117801F07F01212903D0054A13703D
:10085800022010BD034804490370E9E7F0040020B2
:10086800A908000838030020C1080008074B1B68C6
:100878001B7803F07F03212B01D00220704700F082
:10088800DF00022814BF022000207047F004002077
:1008980009B10220704701288CBF02200020704750
:1008A80008B103487047034B1B6808221A82704737
:1008B80068020020F004002008B103487047034B89
:1008C8001B6808221A82704768020020F004002082
:1008D80010B502F06BFA054B1B6800249C7200F0FF
:1008E80095F801F08DFB024B1C6010BDF004002050
:1008F80040030020334B344A1B68D27910B50024DA
:100908005A729C72DC72204600F096FF20464FF423
:10091800007100F0AFFF2046102100F0C3FF204611
:10092800402101F047F98021204601F033F92046A3
:1009380001F05EF8254B204693F8341001F08CF94D
:10094800204601F021F82146012000F093FF012004
:10095800C02101F01FF90120202100F0A3FF21464A
:10096800012000F0B9FF02204FF4C06100F082FFBF
:1009780002204FF4807101F00DF92146022000F0A9
:10098800ABFF0220202100F08DFF2146032000F05C
:1009980071FF03204FF4887101F00CF90320402106
:1009A80001F05AF903204FF4405100F095FF214619
:1009B800032000F077FF204600F072FD044B01226F
:1009C8001A6010BDF0040020DC3100086802002025
:1009D80040030020014900F005BB00BFA002002031
:1009E800014900F0FFBA00BFA8020020054B1B68B0
:1009F800DB78042B04D8044901EBC30100F0F2BAF8
:100A080000207047F0040020B002002038B5012013
:100A180002F0BEF9064D074B074C00224FF4E05197
:100A2800012018601A6010462A602180196038BDBC
:100A3800445C0040405C0040F404002038B5064D9A
:100A4800064B002401222A6020461C6002F0A0F90F
:100A5800032320462B6038BD405C0040445C0040C6
:100A680070B483B00023314A019314683049314887
:100A7800A4B251F8042B92B240F823200133082B7A
:100A8800F7D124F00105294B2B4944F48062ADB21B
:100A9800144645F4806642F001021C601A601E602C
:100AA8000B68254A5C05FBD54FF6FF3320491360D8
:100AB800002350F82320013392B2082B41F8042B6D
:100AC800F7D11A4A1D481E491B4C45F4816515602B
:100AD80013689BB243F0040313600368019303682F
:100AE80023F0030343F0010303600B6943F004039D
:100AF8000B612368DB0410D54EF6FF73236014687E
:100B08004FF6F77323401360019B03600B6923F0D2
:100B180004030B6103B070BC704730BF0B6923F04E
:100B280004030B6103B070BC704700BF405C004019
:100B3800005C0040A0040020445C004000700040BD
:100B480000ED00E010B5064C22684FF6FB73134029
:100B5800236002F0C9F84FF43F43236010BD00BF83
:100B6800405C004038B5324C072818BF2070237805
:100B7800052B4BD8DFE803F0181F30353F036378A7
:100B88002B49013BDBB26370637803F0FF02002B53
:100B98003ED12848284C05684FF6EF732B400625B0
:100BA80003600D70226038BD234B1B68002B30D0CA
:100BB8000523237038BD1F4D2A684FF6FB73134079
:100BC8002B6002F091F81C4B4FF43F4004210122A6
:100BD800286021701A6038BD0222032362702370D6
:100BE80038BD6378124A013BDBB2637063787BB926
:100BF8000423137038BD0F4A13689BB243F01003E7
:100C080005200A2113602070617038BD0623237007
:100C180038BD084D2A684FF6FB7313402B6002F06D
:100C280063F84FF43F4206232A60237038BD00BFA3
:100C38009C040020405C00403C03002008B538B10B
:100C4800064B1B681B689847054B18680A3008BD97
:100C5800034B1B6801221A8208BD00BFEC04002068
:100C6800F004002008B538B1064B1B689B6898470C
:100C7800054B18680C3008BD034B1B6801221A820B
:100C880008BD00BFEC040020F004002008B51F4B8D
:100C9800002832D01E481A6800210180137813F00A
:100CA8007F0316D0012B27D0022B24D1527902F0D2
:100CB8000F039B0003F1804303F5B84312061B683A
:100CC8001FD403F44053B3F5805F0ED101230370A2
:100CD8000BE0527A930654BF0378022351064CBFA7
:100CE80043F0010323F0010303700A4B1B681B69DF
:100CF8009847074808BD084608BD1B6802221A82A3
:100D080008BD03F03003102BEFD1DFE7F00400201B
:100D1800C0040020EC0400202DE9F041234F3C687A
:100D2800238A267A23B9042E2AD0A58A042603E02A
:100D3800A58AAB42FAD902269D4228BF1D462846FD
:100D4800A36998478046002000F044FF2A460146E0
:100D5800404600F01BFD2946002000F05BFF638A37
:100D6800228A13481349521B1D44302303802282D0
:100D780065824FF440533C680B802672BDE8F081D1
:100D88000D490A7862B10D480D4A0068084D80B2D5
:100D9800024452003020138053800B702880ECE707
:100DA800034B10221A800726E7E700BFF004002053
:100DB800F8040020F604002044030020505C0040A2
:100DC800023000200B4B0C4A1B685178DA789142AC
:100DD80001D20220704799780029FAD110B59C8871
:100DE8000CB1022010BD05499A720B685B689847E0
:100DF800204610BDF0040020F4020020EC0400207E
:100E080038B5104A104C126823685879D978936914
:100E1800984723689A7A0AB9022038BD0028FBD17E
:100E28001A79002AF8D19D78002DF5D1074B1B6857
:100E3800DB68984723685979DA78D9721A73284693
:100E480038BD00BFC8040020F0040020EC040020D6
:100E580038B5314B1B68187810F07F0003D0022892
:100E680006D0022038BD5A7A22F020025A7238BDC4
:100E78005A88002AF6D11A79002AF3D15A7922F031
:100E88008000840004F18041150601F5B841234D26
:100E980009682D784CBF01F0300101F44051A84297
:100EA800DFD20029DDD09B7A002BDAD004F1804410
:100EB80004F5B8441206236809D503F03003102B53
:100EC8001ED0174B1B685B699847002038BD03F498
:100ED8004053B3F5805FF4D1D8B9124B93F82C1076
:100EE80000F0BAFE236823F4804323F070039BB21A
:100EF80083F4405343F4004343F080032360E0E766
:100F0800C4B2204600F01AFE2046302100F0CAFC88
:100F1800D7E700F001FEE5E7F0040020F402002026
:100F2800EC0400207002002038B5224B1868427982
:100F380022F080018C0004F18043150603F5B843C4
:100F48001D4D1B682D784CBF03F0300303F440534C
:100F5800A94201D3022038BD41880029FAD1002BCB
:100F6800F8D0837A002BF5D004F1804404F5B84416
:100F78001206236811D523F4E04323F040039BB203
:100F880083F0100343F4004343F0800323600B4BCA
:100F98001B689B699847002038BD23F4804323F0E1
:100FA80070039BB283F4805343F4004343F08003FF
:100FB8002360ECE7F0040020F4020020EC04002099
:100FC80008B5064A064B12681968537A43F020039D
:100FD8005372CB699847002008BD00BFF004002079
:100FE800EC040020054B1A68538A10B108681844AD
:100FF80070478988CB1A1382704700BFF00400201D
:1010080010B50C4B002093F82C1000F025FE0A4B6D
:101018001B68187A082806D10849094B4FF48054F0
:1010280010220C801A80A0F10900B0FA80F0400963
:1010380010BD00BF70020020F0040020F60400205C
:10104800F8040020F0B5A94BA94E1A683468A94BDA
:1010580092B21344227A5B00092A83B01D6847D0F4
:10106800ADB26D0005F1804505F5C0452B782370BC
:101078006B786370A88800F0BDFF608028893768A6
:1010880000F0B8FFB8803468AB89E380012222728F
:10109800002B32D06078062800F08980002848D1DB
:1010A8006188002900F09780934D2B681B69984749
:1010B800032833684DD01A8A4FF6FF718A4248D008
:1010C80002280FD072B193F900100029C0F2B8803D
:1010D8008A4903224FF4405008801A72FFF790FFA4
:1010E80003B0F0BD08221A72FFF78AFF03B0F0BD03
:1010F800E38801222272002BCCD12378657813F083
:101108007F032CD0012B00F0B080022B00F0CF80A1
:10111800794B1B6828465B699847032800F00181D2
:101128003468002834D008232372FFF769FF03B01E
:10113800F0BD082861D123785B06B5D1704BA36157
:1011480000206082984733681A8A4FF6FF718A42F6
:10115800B8D109221A72FFF753FF03B0F0BD092D69
:1011680000F0C080052D00F09080032D00F0A880CD
:10117800012DCDD1E378012BCAD1A388002BC7D18B
:10118800637A9F06C4D5FFF763FE0028C0D1346890
:10119800564A5C4B12685C4992B213445B000022C9
:1011A8001A805A803020062308802372BDE72378EE
:1011B8005D067FF479AFA3784F4D012B00F0AE8028
:1011C800022B5FD0032B7FF470AF2B685B6A002B78
:1011D800B5D1062069E7636823F47F43B3F5003F80
:1011E8007FF462AF207810F07F0040F09E80A388E3
:1011F800002B7FF459AF454BA1E70A287FF454AF81
:10120800237803F07F03012B7FF44EAFA37A002BE2
:101218003FF44AAF618800297FF446AF6368364DD2
:1012280023F47F43B3F5803F7FF43FAF2B686079A9
:101238009B699847002840F0B7803468344B7EE7B4
:10124800D98801910198824215D88A4274D22A49D4
:10125800096891F82C0081B28A4272D22D4A002086
:1012680010709982FFF758FD3EE70B2D7FF450AFC1
:10127800FFF7C6FD89E7204A01991268198292F89A
:101288002C10EEE72B681B6AA1E794F90330002BBA
:10129800FFF649AFA378002B7FF445AFA388002B56
:1012A8007FF441AFA37A002B3FF472AF3BE7012DE7
:1012B8003FF469AF032D7FF42BAFFFF735FE64E7EA
:1012C800E378012B7FF424AFA388002B7FF420AFB1
:1012D800637A114A43F0200312686372D36998470E
:1012E800346855E7FFF76EFD4FE700BF505C0040DC
:1012F800F004002004300020C8040020F604002078
:10130800450C000802300020F8040020950C000865
:101318006D0C000844030020EC0400202B68DB69F6
:1013280055E7346809232372FFE601282FD00228E5
:1013380011D008461E4DB8E61D4A126892F82C10C6
:101348008FE792FBF0F400FB1422002A89D1194A96
:101358000120107085E7607900F00F02930003F117
:101368008043010603F5B84313491B6809784CBF4D
:1013780003F0300303F440538A4206D210F07000A1
:1013880003D1002B7FF437AF8EE600208CE6084DA2
:1013980060792B689B69984730B93468A37A002B29
:1013A8007FF429AF607880E6336858787DE600BF1F
:1013B800C804002044030020F4020020F8B5324D90
:1013C8002C68237A022B07D0042B05D0032B09D0D5
:1013D800052B07D0072B37D008232372BDE8F84028
:1013E800FFF70EBEA369228AB3B1B2B1A68A9642AC
:1013F80028BF164630469847228A638A921B334490
:10140800074622826382002000F0F4FB3246014640
:10141800384600F0D7F9228AEAB9A38A53B31B49A0
:101428002C681B4A1B4B06202072126892B2134488
:101438005B0000221A805A80237A23723022BDE88A
:10144800F8400A80FFF7DCBD134B1B68DB68984740
:101458002C680823C1E7114B00204FF44052014685
:101468001A8000F0D7FB238AA28A084930209A42C2
:10147800088003D82C6803232372AEE7002BCFD053
:101488002C6805232372A8E7F0040020F804002044
:10149800505C004002300020C8040020F604002000
:1014A80070B40C4B1E787EB10B4C0022256842F4B8
:1014B800004140F60F732B4041F0800101320B438D
:1014C800964244F8043BF1D1044B40F08000186088
:1014D80070BC7047F4020020005C00404C5C004087
:1014E80010B5184C23681A7A022A17D0042A15D086
:1014F800062A05D008221A72BDE81040FFF780BD01
:101508005A78052A13D0104B1B689B6898472368A4
:1015180008221A72BDE81040FFF772BDFFF7FCFB06
:1015280023681A7A1A72BDE81040FFF769BD1A7865
:101538005206E8D1D878FFF7B3FF044B1B681B6A43
:101548009847E0E7F0040020C8040020EC040020DD
:10155800704700BF30B4074D074A084C084B09498B
:101568002A60022508481572236008601B6830BC91
:10157800184700BFF0040020D0040020C804002051
:1015880070020020EC040020D00200202DE9F04772
:1015980082B00023DFF86091DFF86881534DADF821
:1015A8000630D8F80020524C524EDFF85CA1524861
:1015B8004E4F91B212044BF6BF73A9F8001040F1D8
:1015C8008A80028802F00F02910001F1804101F542
:1015D800B8418AF800206ABB226892B22A802A8819
:1015E80002F0300232802A8802F440522A802268AF
:1015F800134083F4005383F0200343F4004343F083
:10160800800323600388D8063ED523689BB2ADF8D3
:101618000630BDF80630190560D4BDF806301BB297
:10162800002BBEDA226840F68F7313402360FFF761
:10163800C5FE30E00B689BB2ADF80630BDF8063049
:101648001BB2002B15DBBDF806301906A9D59AF890
:1016580000202A49930003F1804303F5B843013A77
:10166800186851F8221048F60F7202401A6088472D
:1016780097E70C682248013A40F68F73234050F8E8
:1016880022200B609047DEE7226848F60F7313406C
:101698002360FFF725FF21683A884BF6BF73D20411
:1016A8003A8803EA010348BF83F4805395043288DB
:1016B80048BF83F40053D406328848BF83F0100330
:1016C800900648BF83F0200343F4004343F08003AF
:1016D800074A9BB2136002B0BDE8F087226840F663
:1016E8008F7313402360FFF7ADFCD4E7F6040020A6
:1016F800005C0040F80400209A0400204C020020FE
:1017080030020020445C0040CC040020F8B51A4D9B
:101718001A4C1B4F2E4623689AB21B0447F6FF71DA
:101728002A8028D52160328802F00F02930003F145
:10173800804303F5B8433A70196808040ED40906C3
:10174800E9D5D3F800E00F48013A48F60F710EEAE0
:10175800010150F8222019609047DCE7D3F800E037
:101768000948013A40F68F710EEA010150F822202B
:1017780019609047CFE7F8BD9A040020445C004008
:10178800CC0400204C0200203002002001F100515E
:10179800013201F5405152104FEA410110D030B4E6
:1017A8000230002310F8015C10F8024C44EA0524CA
:1017B80021F8234001339A4200F10200F2D130BCF3
:1017C800704700BF01F10051013201F5405152103C
:1017D8004FEA410105D051F8043B20F8023B013A99
:1017E800F9D17047014B1860704700BF405C00405A
:1017F800014B186880B27047405C0040014B18608C
:10180800704700BF445C0040014B186880B27047C5
:10181800445C0040014B186880B27047485C004047
:10182800014B1860704700BF4C5C0040014B1868C2
:1018380080B270474C5C00404FF6F873014A034091
:1018480013607047505C0040014B186880B27047C5
:10185800505C0040800000F1804000F5B840016015
:10186800704700BF800000F1804000F5B840006874
:1018780080B27047800000F1804000F5B8400368EE
:1018880023F4EC4323F07003194389B201607047D5
:10189800800000F1804000F5B840006800F4C060A6
:1018A800704700BF800000F1804000F5B840CA06CC
:1018B800036823F4E04323F040039BB248BF83F05E
:1018C80010038A0648BF83F0200343F4004343F023
:1018D80080030360704700BF800000F1804000F57E
:1018E800B840CA04036823F4804323F070039BB212
:1018F80048BF83F480538A0448BF83F4005343F4F9
:10190800004343F080030360704700BF800000F18C
:10191800804000F5B8400129036807D0022900D0AB
:1019280070474FF6EF721A40026070474EF6FF722A
:101938001A400260704700BF800000F1804000F547
:10194800B840006800F03000704700BF800000F128
:10195800804000F5B840006800F44050704700BF70
:10196800800000F1804000F5B840036823F4E043AC
:1019780023F040039BB283F0300343F4004343F069
:1019880080030360704700BF800000F1804000F5CD
:10199800B840036823F4804323F070039BB283F4B8
:1019A800405343F4004343F080030360704700BF93
:1019B800800000F1804000F5B84040F60F620368EF
:1019C800134043F4014343F080030360704700BFB2
:1019D800800000F1804000F5B84040F60F620368CF
:1019E800134043F4004343F080030360704700BF93
:1019F800800000F1804000F5B84040F60F620368AF
:101A0800134043F4004343F080030360704700BF72
:101A1800800000F1804000F5B84040F60F6203688E
:101A2800134043F4014343F080030360704700BF51
:101A3800800000F1804000F5B84040F60F6203686E
:101A4800134043F4014343F080030360704700BF31
:101A5800800000F1804000F5B84040F60F6203684E
:101A6800134043F4004343F080030360704700BF12
:101A7800800000F1804000F5B840006800F03000B8
:101A8800A0F11000B0FA80F040097047800000F122
:101A9800804000F5B840006800F44050A0F5805040
:101AA800B0FA80F040097047800000F1804000F5EE
:101AB800B84040F68F73026813400360704700BF58
:101AC800800000F1804000F5B84048F60F730268C6
:101AD80013400360704700BF800000F1804000F5AC
:101AE800B84040F60F730268134043F4404343F094
:101AF80080030360704700BF800000F1804000F55C
:101B0800B84040F60F730268134043F4004343F0B3
:101B1800C0030360704700BF800000F1804000F5FB
:101B2800B84003685B0408D5026840F60F73134099
:101B380043F4404343F0800303607047800000F1A2
:101B4800804000F5B84003685B0608D5026840F697
:101B58000F73134043F4004343F0C003036070471E
:101B6800800000F1804000F5B84041F4004102686F
:101B780040F60F7341F0800113401943016070472C
:101B8800800000F1804000F5B840006800F00F00C8
:101B9800704700BF064B1B689BB203EBC00000F107
:101BA800005000F540504908400049000160704766
:101BB800505C0040054A064B126892B202EBC00026
:101BC800034449085B00490019607047505C0040B5
:101BD80004300020064B1B689BB203EBC00000F1E9
:101BE800005000F540504000006880B2704700BFC8
:101BF800505C0040054A064B126892B202EBC000E6
:101C080003445B00186880B2704700BF505C004016
:101C180004300020044A054B126892B202EBC0005F
:101C280003445B0019607047505C0040023000209C
:101C38003E290AD94B09C90604BF03F1FF339BB2F9
:101C48009B0243F40043036070474B08CA0748BF30
:101C580001339B02036070470E4A0F4B126892B221
:101C680002EBC00003443E294FEA43030AD94A095C
:101C7800C80604BF02F1FF3292B2920242F4004257
:101C88001A6070474A08C90748BF013292021A60B1
:101C9800704700BF505C004006300020054A064BE4
:101CA800126892B202EBC00003445B001868C0F3EC
:101CB80009007047505C004002300020054A064B7E
:101CC800126892B202EBC00003445B001868C0F3CC
:101CD80009007047505C00400630002030B40C4DBD
:101CE8000C4C2B682D68C00010FA83F310FA85F5A8
:101CF80003F100532C4403F540536400490852088B
:101D08005B00490052001960226030BC704700BF78
:101D1800505C004004300020064B1B689BB203EB6C
:101D2800C00000F1005000F540504908400049004B
:101D380001607047505C0040054A064B126892B239
:101D480002EBC000034449085B0049001960704772
:101D5800505C004004300020064B1B689BB203EB2C
:101D6800C00000F1005000F540504000006880B20B
:101D7800704700BF505C0040054A064B126892B29B
:101D880002EBC00003445B00186880B2704700BFD4
:101D9800505C004004300020012930B403D00229EF
:101DA80020D030BC70472B4C2B4B2168C00010FA58
:101DB80081F10B443E2A4FEA430128D95309D20640
:101DC8003CD12468254A013B9BB210FA84F09B025F
:101DD800024443F400405200086043F40043136097
:101DE80030BC70471B4B1D681C681C4BC00001F1C0
:101DF800005110FA85F501F5405110FA84F0294494
:101E0800034449005B000A6030BC1A6070472468CC
:101E180012F0010F4FEA520310FA84F00F4A07D06C
:101E28000244013352009B020B60136030BC7047C0
:101E3800024452009B020B601360F7E72468074ACC
:101E480010FA84F09B02024443F4004052000860F8
:101E5800C3E700BF505C004002300020063000207D
:101E680001290CD0022900D070471349134B096887
:101E780089B201EBC00003445B001A6070470E4949
:101E88000E4B096889B201EBC00003443E2A4FEAB1
:101E980043030AD95109D00604BF01F1FF3189B2C1
:101EA800890241F40041196070475108D20748BFC0
:101EB8000131890219607047505C004002300020EF
:101EC80001290CD0022900D070471349134B096827
:101ED80089B201EBC00003445B001A6070470E49E9
:101EE8000E4B096889B201EBC00003443E2A4FEA51
:101EF80043030AD95109D00604BF01F1FF3189B261
:101F0800890241F40041196070475108D20748BF5F
:101F18000131890219607047505C0040063000208A
:101F2800054A064B126892B202EBC00003445B00FC
:101F38001868C0F309007047505C00400230002068
:101F4800054A064B126892B202EBC00003445B00DC
:101F58001868C0F309007047505C00400630002044
:101F68000D490E4B0A68C00010FA82F213445B0058
:101F78001B6813F47C4F0DD10A68094B10FA82F0E4
:101F880003445B001B68C3F30903002B14BF022042
:101F98000020704701207047505C00400630002048
:101FA80002300020012911D0022900D0704780009A
:101FB80000F1804000F5B84040F60F730268134006
:101FC80043F4404343F0800303607047800000F10E
:101FD800804000F5B84040F60F730268134043F4A0
:101FE800004343F0C0030360704700BF41EA00208C
:101FF800704700BFC3B2000A40EA0320704700BF21
:1020080010B40649064C074A00204FF43F432060AD
:102018000B805DF8044B1360704700BFF404002088
:10202800445C0040405C004070B500F07F052846E5
:102038000E4694B2FFF7CEFD224601463046FFF722
:10204800A5FB28462146FFF7E5FD002070BD00BF2F
:1020580070B500F07F0528460E46FFF72FFE0446B0
:102068002846FFF7C7FD224601463046FFF7AAFB80
:10207800204670BD014B01221A60704710020020F3
:10208800F8B50320FFF71AFE174C02464FF4887183
:1020980016482260FFF796FB2568154895B1154C40
:1020A800124F154E00222378DBB2591CC9B2217099
:1020B800B95CC9B2F1540388013201339BB2AA4218
:1020C8000380F0D103880A4A9BB2B3F5807F05D913
:1020D8000A4B4FF480700121108019700320BDE86D
:1020E800F840FFF751BC00BFFC0400204C0300205F
:1020F8009804002029030020980300202A030020C8
:1021080030B40B4B00224FF0FC556FF0FC540C2000
:1021180003211D605A609A60DA601A615C61186276
:1021280030BC5A629A62DA621A635963704700BF18
:10213800000401408379F0B5002B59D00368027977
:102148004479DFF800E13D4E3D4D23F01F0101F1D8
:10215800804101F5823103F01F07D1F800C0012347
:1021680003FA07F72CEA07070F60016821F01F0C34
:1021780001F01F015CF80E7003FA01F127EA010172
:102188004CF80E10016802F1804221F01F0702F599
:10219800823201F01F0152F807E003FA01F14EEA1A
:1021A8000101D151026822F01F0702F01F02B9593C
:1021B80003FA02F221EA0202BA51026822F01F076A
:1021C80002F01F02795903FA02F221EA0202102CE6
:1021D8007A511FD0016804F1804221F01F0002F5F6
:1021E800823201F01F0114588B4023431350F0BD75
:1021F8000379026803F1804322F01F0403F5823358
:1022080002F01F021959012000FA02F221EA020223
:102218001A51F0BD026822F01F0102F01F028C590A
:1022280003FA02F222438A51026822F01F0102F0E7
:102238001F024859934003434B51F0BD0804014025
:102248000C04014004040140002310224271036081
:1022580003718371704700BF20F01F01054A10B455
:1022680000F01F008C580123834023438B505DF8F6
:10227800044B70471004014020F01F02054B00F08A
:102288001F00D258012383401A4214BF01200020A6
:10229800704700BF1404014000F01F01012320F023
:1022A8001F00024A8B408350704700BF140401404E
:1022B80020F01F0303F1804303F5823300F01F0071
:1022C800012219685B69824013EA020003D01142B7
:1022D80014BF01200020704700F01F01012320F0E7
:1022E8001F00024A8B408350704700BF140401400E
:1022F800B0F1904F08B51BD02B4B984224D02B4BF4
:1023080098422DD02A4B984236D02A4B98423FD03B
:10231800294B984200D008BD4FF48000012100F0FD
:10232800F9FB4FF480000021BDE8084000F0F2BB43
:102338004FF40030012100F0EDFB4FF40030002194
:10234800BDE8084000F0E6BB4FF48020012100F012
:10235800E1FB4FF480200021BDE8084000F0DABB23
:102368004FF40020012100F0D5FB4FF4002000219C
:10237800BDE8084000F0CEBB4FF48010012100F00A
:10238800C9FB4FF480100021BDE8084000F0C2BB33
:102398004FF40010012100F0BDFB4FF400100021A4
:1023A800BDE8084000F0B6BB00040048000800483B
:1023B800000C0048001000480014004800222DE9D5
:1023C800F0471346D1F800E001274FF0030C04E072
:1023D8000133102B02F1020225D007FA03F404EAB4
:1023E8000E05A542F4D10E79741E012C0CFA02F4E4
:1023F8001BD9E443056891F807802C400460046801
:10240800964026430660C4680CFA02F524EA0504DF
:10241800C460C56808FA02F401332C43102BC46069
:1024280002F10202D9D1BDE8F087D0F808A091F8EE
:10243800058091F806900CFA02F4E44304EA0A0ACB
:10244800C0F808A0D0F808A008FA02F848EA0A0874
:10245800C0F80880B0F804801FFA88F828EA050850
:10246800A0F80480B0F8048009FA03F949EA0805DD
:10247800ADB28580BEE700BF00234FF6FF71012291
:102488000160427103718371C371704741F48033F5
:10249800C361C161C361C369C3697047038A1942D3
:1024A80014BF012000207047008A80B2704700BF27
:1024B800838A194214BF012000207047808A80B2A5
:1024C800704700BF81617047018570470AB901856F
:1024D80070478161704700BF81827047CB0800EB6D
:1024E800830001F0070110B48900046A0F238B40B0
:1024F80024EA03030362036A5DF8044B8A4013432A
:102508000362704740F0BF60024B40F40030D8606F
:10251800704700BF00ED00E0C3785BB90378184846
:102528005A09203203F01F03012101FA03F340F88E
:1025380022307047F0B4134A4378D268857801781E
:102548000F4CD243C2F302220F26D640C2F1040731
:1025580003FA07F206EA0503134301F1604202F5A4
:1025680061421B01DBB282F800330378012203F0D9
:102578001F015B098A4044F82320F0BC704700BF64
:1025880000E100E000ED00E021F0604121F07F0172
:10259800014B08439860704700ED00E0044A136956
:1025A80019B923EA00001061704718431061704799
:1025B80000ED00E0044A136804280CBF43F004034C
:1025C80023F004031360704710E000E0114B124A37
:1025D8001868124940F001001860586802405A60B3
:1025E8001A6822F0847222F480321A601A6822F47F
:1025F80080221A605A6822F4FE025A60DA6A22F4CB
:102608007F5222F03F02DA62186B00220140196300
:102618009A6070470010024000C0FFF8CCFC000F21
:10262800024B00221A701870704700BF0210024057
:10263800034A136823F0F80343EAC00010607047A8
:1026480000100240014B1860704700BF0000424272
:10265800064B1A6A22F001021A621A6A22F0040270
:102668001A621A6A10431862704700BF00100240CD
:10267800044B1A6A22F018021A621A6A1043186286
:10268800704700BF00100240014B1860704700BF40
:1026980080044242044A536823F474135360536815
:1026A800194308435060704700100240014B1860FE
:1026B800704700BF60004242034AD36A23F00F0309
:1026C8001843D062704700BF00100240014B1860E9
:1026D800704700BF4C004242014B1870704700BF62
:1026E80007100240034A536823F00303184350605D
:1026F800704700BF00100240024B586800F00C0001
:10270800704700BF00100240034A536823F0F003EB
:1027180018435060704700BF00100240034A5368D6
:1027280023F4E06318435060704700BF0010024074
:10273800034A536823F4605343EAC000506070476B
:10274800001002409E4A536803F00C03042BF0B5B6
:1027580000F00481082B00F0EE809A49016003B173
:102768000023974D984C6A68C2F30312A65CF6B230
:1027780021FA06F242606F68C7F30227E75D22FA82
:1027880007FEC0F808E06F68C7F3C227E75DFFB22D
:10279800FA40C260ED6AC5F3041504EB45052D8ABD
:1027A800ADB215F0100F1CBFB3FBF5F50561844DF4
:1027B80008BF0161ED6AC5F3442504EB4504248A8A
:1027C800A4B2E50644BFB3FBF4F444617C4C58BFA3
:1027D8004161246BE5065CBF7A4C8461784C48BF44
:1027E8008161246BA4065CBF764CC461744C48BFFD
:1027F800C161256BED053BD58B4200F0B9800262C3
:10280800236B42626E4B1C6BA40740F0828082628D
:102818006B4B1A6B12F4403F66D1C0F82CE0684B42
:102828001A6B12F4402F4AD1C0F830E0644B1A6B8F
:1028380012F4401F27D1C0F834E0614B1A6B12F430
:10284800400F39D01A6B02F44002B2F5800F00F045
:102858009E801A6B02F44002B2F5000F00F0AC80C3
:102868001B6B03F44003B3F5400F00F09280F0BDFA
:102878000262246BA505C4D58B42C2D1B742C0D130
:102888004B004362BEE71A6B02F44012B2F5801F98
:1028980068D01A6B02F44012B2F5001F7CD01B6B93
:1028A80003F44013B3F5401F04BF464B4363444B46
:1028B8001A6B12F4400FC5D1C0F838E0F0BD1A6B9E
:1028C80002F44022B2F5802F5BD01A6B02F440224A
:1028D800B2F5002F64D01B6B03F44023B3F5402FEF
:1028E80004BF384B0363A1E71A6B02F44032B2F518
:1028F800803F39D01A6B02F44032B2F5003F53D012
:102908001B6B03F44033B3F5403F04BF2D4BC36248
:1029180085E71A6B02F00302012A27D01A6B02F02E
:102928000302022A44D01B6B03F00303032B04BFEA
:10293800244B83626CE753685468C3F38343991C40
:10294800E30320D5D36A1F4A03F00F030133B2FB18
:10295800F3F301FB03F30360194602E71949016029
:102968000023FEE6416368E7C16258E781624FE7EA
:10297800B7427FF444AF4B000362246BA60580D4B2
:102988003FE7016352E7114B03FB01F3E3E7816380
:10299800F0BD0C4B8363F0BD4FF4004343634CE739
:1029A8004FF40043036341E74FF40043C36236E743
:1029B8004FF4004383622BE74FF400438363F0BD79
:1029C8000010024000127A00F802002000093D00C1
:1029D800064A030FD36A14BF23F4785323F4F87319
:1029E800D362024AD36A1843D0627047001002408B
:1029F800064A030F136B14BF23F0200323F01003C0
:102A08001363024A136B18431063704700100240A7
:102A1800064A030F136B14BF23F4007323F4807367
:102A28001363024A136B1843106370470010024087
:102A3800030F013B042B09D8DFE803F01319031F28
:102A48000D00114A136B23F4402313630E4A136BD2
:102A58001843106370470C4A136B23F44003136345
:102A6800F4E7094A136B23F003031363EEE7064AFE
:102A7800136B23F440331363E8E7034A136B23F41F
:102A880040131363E2E700BF00100240014B1860D7
:102A9800704700BFD8004242024A136A18431062C6
:102AA800704700BF00100240014B1860704700BF1C
:102AB800DC004242014B1860704700BF3C044242B0
:102AC800014B1860704700BF40044242044A5369F2
:102AD80019B923EA000050617047184350617047E4
:102AE80000100240044A936919B923EA0000906172
:102AF800704718439061704700100240044AD36938
:102B080019B923EA0000D06170471843D0617047B3
:102B180000100240044A936A19B923EA000090623F
:102B2800704718439062704700100240044AD36807
:102B380019B923EA0000D06070471843D060704785
:102B480000100240044A136919B923EA0000106111
:102B5800704718431061704700100240044A137808
:102B680019B923EA000010707047184310707047B5
:102B780009100240430908D10F4B1A6800F01F03DF
:102B880022FA03F000F001007047012B0BD0042B50
:102B9800094B0CBF5A685A6A00F01F0322FA03F067
:102BA80000F001007047044B1A6A00F01F0322FA74
:102BB80003F000F0010070470010024000B583B038
:102BC8000023019300E048B91120FFF7D3FF019BD0
:102BD80001330193019BB3F5A06FF4D11120FFF7E6
:102BE800C9FF003018BF012003B05DF804FB00BF27
:102BF800024A536A43F080735362704700100240E0
:102C0800034B9B68184214BF01200020704700BF87
:102C180000100240014B1870704700BF0A100240B4
:102C280030B50024E3B293420DD2030F092B94BFB1
:102C38003033373301F8143001EB44030025000129
:102C48005D700134EEE730BD13B54FF080500121BF
:102C5800FFF754FF01200146FFF744FF4FF400102F
:102C68000121FFF733FF4FF400300121FFF72EFF5A
:102C78004FF4C0530093032300248DF805306946B0
:102C880002234FF090408DF804308DF806408DF8FF
:102C98000740FFF793FB4FF090400B210E22FFF700
:102CA8001DFC0C210E224FF09040FFF717FC12205C
:102CB800FFF712FB05481223036008234371012321
:102CC80004718371FFF736FA02B010BD8C0300203F
:102CD80008B50020FFF7DAFE4FF400000121BDE837
:102CE8000840FFF70BBF000008B50120FFF798FC6C
:102CF800FFF764FF0F4B18701120FFF73BFF002808
:102D0800FAD00120FFF7D2FC1920FFF733FF002883
:102D1800FAD00220FFF7E6FCFFF7EEFC0828FBD10B
:102D2800054B9A7A054B0AB1052200E001221A6088
:102D380008BD00BF48030020D00400204003002045
:102D480037B54FF4A060FFF7DDFB142301248DF89D
:102D580004300025022301A88DF805308DF80650AF
:102D68008DF80740FFF7D8FB2A2301A88DF8043017
:102D78008DF805408DF80740FFF7CEFB062301A824
:102D88008DF804308DF80550FFF7C6FB03B030BD51
:102D980020B105484FF48041FFF796BB02484FF435
:102DA8008041FFF78FBB00BF00100048094B10B5EA
:102DB80018685C6808331B6818180AD00649082286
:102DC800FFF72EFF204605490422BDE81040FFF713
:102DD80027BF10BDE8F7FF1F1602002026020020BB
:102DE8003F2910B54FF000030FD8094A8CB2136081
:102DF800C0212246FEF7CAFC21460120FEF70AFF41
:102E08000120FEF7ADFD012010BD184610BD00BF22
:102E18001002002008B50320FEF7B6FD012008BD0A
:102E2800002210B5134649200121FDF7EDF90022D3
:102E3800134648200121FDF7E7F9002213464A20EE
:102E48000121FDF7E1F9002213464F200121FDF78A
:102E5800DBF9002213464B200121FDF7D5F90022AA
:102E680013464E200121FDF7CFF9002213464C20CE
:102E78000121FDF7C9F900224D2001211346BDE8C3
:102E88001040FDF7C1B908B549200021FDF7ECF95C
:102E980048200021FDF7E8F94A200021FDF7E4F970
:102EA8004F200021FDF7E0F94B200021FDF7DCF968
:102EB8004E200021FDF7D8F94C200021FDF7D4F968
:102EC8004D200021BDE80840FDF7CEB908B54920DE
:102ED8000121FDF7C9F948200121FDF7C5F94A206C
:102EE8000121FDF7C1F94F200121FDF7BDF94B2064
:102EF8000121FDF7B9F94E200121FDF7B5F94C2064
:102F08000121FDF7B1F94D200121BDE80840FDF789
:102F1800ABB9000008B5FDF7CDF9FDF731F9FFF7BA
:102F28007FFF0020014602460346FDF76DF9FDF7D5
:102F3800B7F9FDF7BDF900200146FDF7B5F90E48D0
:102F4800FDF7B4F90020FDF79FF950B9FFF79BFF93
:102F58004FF4FA70FDF7CCF9FFF7B8FF4FF4FA70A9
:102F680007E0FFF790FF6420FDF7C2F9FFF7AEFF17
:102F78006420FDF7BDF9E5E732320008394AD2F896
:102F8800883043F47003C2F88830374B1A6842F02F
:102F980001021A605968354A0A405A601A6822F0D4
:102FA800847222F480321A601A6822F480221A602D
:102FB8005A6822F4FE025A60DA6A22F00F02DA62D4
:102FC800196B2B4A82B00A401A6300229A60009259
:102FD80001921A6842F4A0221A601A6802F40032B8
:102FE8000192009A01320092019A1AB9009AB2F538
:102FF800A06FF2D11A6812F4003218BF01220192B0
:10300800019A012A05D0174B4FF000629A6002B06E
:103018007047184A122111605A685A605A685A60F3
:103028005A6842F480625A605A6822F47C125A60E4
:103038005A6842F4E8125A601A6842F080721A60BC
:103048001968094A8901FBD5516821F003015160CB
:10305800516841F0020151605A6802F00C02082AD6
:10306800FAD1D0E700ED00E0001002400CC07FF874
:10307800CCFC00FF00200240002103E00B4B5B5812
:10308800435004310A480B4B42189A42F6D30A4A75
:1030980002E0002342F8043B084B9A42F9D3FFF7B9
:1030A8006DFF00F00FF8FFF735FFFEE75832000814
:1030B8000000002024030020240300200005002035
:1030C800FEE7000070B50F4E0F4D761BB61018BF07
:1030D800002405D0013455F8043B9847A642F9D19D
:1030E8000A4E0B4D761B00F0A7F8B61018BF002447
:1030F80006D0013455F8043B9847A642F9D170BD73
:1031080070BD00BF000000000000000000000000CB
:103118000000000020F0030110F00300C0F10000DF
:1031280051F8043B00F1040C4FEACC0C6FF000029C
:103138001CBF22FA0CF213434FF0010C4CEA0C2C82
:103148004CEA0C4CA3EB0C0222EA030212EACC1262
:1031580004BF51F8043B0430F4D0C2F1000102EA84
:103168000102B2FA82F2C2F11F0200EBD2007047EC
:1031780080C094D43203530054004D003300320011
:1031880020005600690072007400750061006C0030
:10319800200043004F004D00200050006F007200D7
:1031A80074002000200000002603530054004D0046
:1031B8006900630072006F0065006C0065006300C1
:1031C800740072006F006E006900630073000000F5
:1031D8000403090409024300020100C03209040083
:1031E800000102020100052400100105240100016C
:1031F800042402020524060001070582030800FFD3
:1032080009040100020A000000070503024000004B
:103218000705810240000000120100020200004080
:103228008304405700020102030148656C6C6F2C4F
:1032380020576F726C642100F8B500BFF8BC08BC59
:103248009E467047F8B500BFF8BC08BC9E4670475C
:103258000100020004000800100020004000800067
:103268000001000200040008001000200040008057
:103278000100020004000800100020004000800047
:103288000001000200040008001000200040008037
:103298000100020004000800100020004000800027
:1032A8000001000200040008001000200040008017
:1032B8000100020004000800100020004000800007
:1032C80000010002000400080010002000400080F7
:1032D80001000200040008001000200040008000E7
:1032E80000010002000400080010002000400080D7
:1032F8000100020004001000400000020004000069
:103308000000004800000048000000480000004895
:103318000000004800000048000000480000004885
:103328000000004800000048000000480000004875
:103338000000004800000048000000480000004865
:103348000004004800040048000400480004004845
:103358000004004800040048000400480004004835
:103368000004004800040048000400480004004825
:103378000004004800040048000400480004004815
:1033880000080048000800480008004800080048F5
:1033980000080048000800480008004800080048E5
:1033A80000080048000800480008004800080048D5
:1033B80000080048000800480008004800080048C5
:1033C800000C0048000C0048000C0048000C0048A5
:1033D800000C0048000C0048000C0048000C004895
:1033E800000C0048000C0048000C0048000C004885
:1033F800000C0048000C0048000C0048000C004875
:103408000010004800100048001000480010004854
:103418000010004800100048001000480010004844
:103428000010004800100048001000480010004834
:103438000010004800100048001000480010004824
:103448000014004800140048001400480014004804
:1034580000140048001400480014004864000000EC
:10346800010000001A03530054004D0033003200DD
:103478000000000000000000000000000000000044
:103488005915000859150008892000085915000821
:103498005915000859150008591500087D2000081D
:1034A800591500085915000859150008591500083C
:1034B800591500085915000800C20100000008004D
:1034C800D9080008FD0800080108000815080008C8
:1034D800190800087508000899080008DD0900089F
:1034E800E9090008F5090008000000004000000094
:1034F8002032000812000000DC3100084300000000
:10350800D831000804000000B0310008260000008F
:103518007C31000832000000140200201A0000006C
:1035280059150008DD070008591500085915000845
:1035380059150008591500085915000859150008AB
:10354800F507000804010000000000000102030460
:103558000102030406070809000001000200040034
:10356800060008000A000C0010002000400080003F
:04357800000100004E
:04000005080030813E
:00000001FF
